S0150000696E6B75625F61746D656761382E73726563F0
S11300000C940E030C942B030C942B030C942B03D1
S11300100C942B030C942B030C942B030C942B03A4
S11300200C942B030C942B030C942B030C942B0394
S11300300C942B030C942B030C942B030C942B0384
S11300400C942B030C942B030C942B030C94B10BE6
S11300500C942B03FCFE070303030307FEFC3F7F02
S1130060E0C0C0C0C0E07F3F30180C06FFFF0000B6
S11300700000C0C0C0C0FFFFC0C0C0C0181C0E0735
S1130080030383C7FE7CE0F0F8DCCEC7C3C1C0C065
S1130090030383C3E3F3BB9F0F073070E1C1C1C106
S11300A0C1E37F3E0080C0F03C0F8381000006075F
S11300B007060606FFFF06067EFFC3C3C3C3C3C30A
S11300C0830360E0C0C0C0C0C0E1FF7FC0E0F0B8FF
S11300D09C8E878301007FFFE3C1C1C1C1E3FF7E22
S11300E0030303030303C3F33F1F000000F0FC1FDB
S11300F0070100001C3EE7C3C3C3C3E73E1C3E7FA9
S1130100E3C1C1C1C1E37F3E7CFEC783838383C750
S1130110FFFE000081C1E171391D0F0700E0E0E03E
S11301200000005F00000007000700147F147F1424
S1130130242A7F2A12231308646236495522500068
S113014005030000001C2241000041221C00140889
S11301503E081408083E080800503000000808084B
S1130160080800606000002010080402000000007D
S11301700000005F00000007000700147F147F14D4
S1130180242A7F2A12231308646236495522500018
S113019005030000001C2241000041221C00140839
S11301A03E081408083E08080050300000080808FB
S11301B0080800606000002010080402000000002D
S11301C00000005F00000007000700147F147F1484
S11301D0242A7F2A122313086462364955225000C8
S11301E005030000001C2241000041221C001408E9
S11301F03E081408083E08080050300000080808AB
S11302000808006060000020100804023E514945BF
S11302103E44427F404042615149462141454B3171
S11302201814127F1027454545393C4A4949300185
S1130230710905033649494936064949291E0036DC
S1130240360000005636000008142241001414142D
S1130250141400412214080201510906324979415B
S11302603E7E1111117E7F494949363E414141226A
S11302707F4141221C7F494949417F090909013EC7
S11302804149497A7F0808087F00417F41002040A6
S1130290413F017F081422417F404040407F020CCF
S11302A0027F7F0408107F3E4141413E7F090909D6
S11302B0063E4151215E7F09192946464949493183
S11302C001017F01013F4040403F1F2040201F3F6C
S11302D04038403F631408146307087008076151ED
S11302E0494543007F414100020408102000414178
S11302F07F00040201020440404040400001020427
S11303000020545454787F484444383844444420AA
S1130310384444487F3854545418087E0901020C68
S11303205252523E7F0804047800447D400020402D
S1130330443D007F1028440000417F40007C0418A5
S113034004787C0804047838444444387C14141435
S113035008081414187C7C080404084854545420D5
S1130360043F4440203C4040207C1C2040201C3C56
S11303704030403C44281028440C5050503C4464C5
S1130380544C44000836410000007F000000413610
S1130390080010080810087846414678000000005C
S11303A00000005F00000007000700147F147F14A2
S11303B0242A7F2A122313086462364955225000E6
S11303C005030000001C2241000041221C00140807
S11303D03E081408083E08080050300000080808C9
S11303E008080060600000201008040200000000FB
S11303F00000005F00000007000700147F147F1452
S1130400242A7F2A12231308646236495522500095
S113041005030000001C2241000041221C001408B6
S11304203E081408083E0808005030000008080878
S113043008080060600000201008040200000000AA
S11304400000005F00000007000700147F147F1401
S1130450242A7F2A12231308646236495522500045
S113046005030000001C2241000041221C00140866
S11304703E081408083E0808005030000008080828
S11304800808006060000020100804023E5149453D
S11304903E00427F400042615149462141454B3173
S11304A01814127F1027454545393C4A4949300103
S11304B0710905033649494936064949291E00365A
S11304C036000000563600000814224100141414AB
S11304D01414004122140802015109067E1111115D
S11304E07E7F494949317F494949367F01010103EA
S11304F0702927217F7F4949494177087F0877413F
S1130500414149767F1008047F7F1009047F7F08EA
S113051014224120413F017F7F020C027F7F0808A3
S1130520087F3E4141413E7F0101017F7F09090966
S1130530063E4141412201017F010147281008077D
S11305401E217F211E63140814633F2020205F07AF
S11305500808087F7F407F407F3F203F205F017F66
S11305604848307F4830007F007F4848304141414F
S1130570493E7F083E413E462919097F2054545480
S1130580783C4A4A49317C545428007C0404040CC5
S1130590722A26227E38545454186C107C106C44F1
S11305A0445454387C2010087C7C2112097C7C1033
S11305B028440020443C047C7C0810087C7C1010F7
S11305C0107C38444444387C0404047C7C141414A3
S11305D008384444442004047C04044428100804D7
S11305E008147E140844281028443C40407C400CE5
S11305F01010107C7C407C407C3C203C207C047CA3
S11306005050207C5020007C007C505020284444D2
S113061054387C10384438485434147C11241FBE98
S1130620CFE5D4E0DEBFCDBF11E0A0E6B0E0E6E464
S1130630F3E202C005900D92A439B107D9F721E085
S1130640A4E9B1E001C01D92A23CB207E1F70E9407
S113065099080C94A1110C94000098E0DC9888236C
S113066014F4DB9A01C0DB98DC9A880F9150B1F73F
S11306700895DA98D9980E942D03D99A0895CF93B2
S1130680C82F862F877080640E9439038C2F80685E
S11306900E943903CF910895DA9AD9980E942D03C4
S11306A0D99A0895CF93DF9360E080E00E943F03DE
S11306B0CEE8D3E080E00E944C032197D9F760E0B4
S11306C080E00E943F03DF91CF9108958AB38F6148
S11306D08ABBD89AD99AD8988FE493EC0197F1F70A
S11306E000C00000D89A81E20E94390383E10E948D
S11306F0390384E00E94390388EB0E94390380E2C5
S11307000E9439038CE00E9439030E94520360E086
S113071080E00E943F030895EF92FF921F93CF93CE
S1130720DF93162F90E0EC01CC0FDD1FCC0FDD1F03
S11307308C0F9D1FEC01C45EDE4F7E0185E0E80E48
S1130740F11C113021F4FE018491809502C0FE0158
S113075084910E944C032196CE15DF0591F781E028
S1130760113009F080E081950E944C03DF91CF9114
S11307701F91FF90EF9008957F928F929F92AF9276
S1130780BF92CF92DF92EF92FF920F931F93CF937A
S1130790DF9300D000D000D0CDB7DEB7982EB62EB0
S11307A06A01822E9A01ADECBCEC0E94020E969571
S11307B0879596958795969587952DEC829F212D03
S11307C01124269526952695422F440F342F330F56
S11307D0330F340F482F431B34E1439FA0011124EE
S11307E04C5A5F4F5A834983222309F4A8C09DECD5
S11307F0299F912D1124969596959695990F392FA9
S1130800330F330F930F291B44E1249F90011124CC
S11308102C5A3F4F3C832B8399E2899F812D1124CD
S113082082958F7009F491C0A4E18A9FC0011124BC
S11308308C5A9F4F9E838D836894AA24A1F887C005
S11308401F5F0F5FD701ED91FC91E10FF11D8491C2
S11308500E944C03193029F4672D892D0E943F030F
S1130860EFCF043168F380E00E944C031BE0190DC4
S11308706B2D812F0E943F03AA94AA2054F4B1E067
S11308808B121DC013C00F2EF9E07F2EF02D7B0CB0
S113089001C0912E01E010E0EA2CEE0CFF0821E0EB
S11308A030E02C0F3D1FE20EF31ECCCF69E06B0D40
S11308B0812F0E943F0360E080E00E948C0331E1BD
S11308C0930E6B2D892D0E943F039601ADECBCEC79
S11308D00E94020E9695879596958795969587958D
S11308E09C01220F331F880F991F880F991F880FAF
S11308F0991F820F931FC81AD90A84E18C9D700135
S11309008D9DF00C112401E010E049E0B40E02C00A
S11309101F5F0F5FF701E10FF11DEC5AFF4F849148
S11309200E944C03193029F46B2D892D0E943F033A
S1130930EFCF043168F380E00E944C030DC06B2DAF
S1130940892D0E943F03A12C9ECFAA24A3946B2D32
S1130950892D0E943F0397CF26960FB6F894DEBFE9
S11309600FBECDBFDF91CF911F910F91FF90EF90FC
S1130970DF90CF90BF90AF909F908F907F9008951D
S11309801F93CF93DF93EC018881882341F0162FC6
S11309902196612F0E948C0389918111FACFDF91F6
S11309A0CF911F910895CF93C82F8A3019F48DE009
S11309B00E94D30460E08C2F0E948C0380E090E0BE
S11309C0CF910895AF92BF92CF92DF92EF92FF92B0
S11309D00F931F93CF93DF93CDB7DEB729970FB64D
S11309E0F894DEBF0FBECDBF182F7B01B42EA22E0C
S11309F00E94E00D612FC7010E94A40C612F8EE4B8
S1130A000E947B0C612F8B2D0E947B0C612F8A2D01
S1130A100E947B0C612F802F0E947B0C812F0E94EF
S1130A20E00D612FC7010E94A40C612F8EEB0E9480
S1130A307B0CCE0101967C016E019AE0C90ED11C9B
S1130A40812F0E94910CF70181937F01EC15FD0524
S1130A50B9F7CE0101960E945B0C811110C08B8105
S1130A60B8120FC08C81A8120EC02D81207630E000
S1130A70802F90E02817390741F484E007C081E013
S1130A8005C083E003C083E001C083E029960FB66C
S1130A90F894DEBF0FBECDBFDF91CF911F910F91B0
S1130AA0FF90EF90DF90CF90BF90AF900895CF93D9
S1130AB0C82F0E945203C53009F128F4C13041F017
S1130AC0C23099F035C0C63011F1C73049F130C099
S1130AD061E080E00E943F038CE790E09F938F9356
S1130AE00E949B0E0F900F9023C08BE890E09F9381
S1130AF08F930E949B0E0F900F901AC089E990E08B
S1130B009F938F930E949B0E0F900F9011C087EAC2
S1130B1090E09F938F930E949B0E0F900F9008C0BC
S1130B208CEB90E09F938F930E949B0E0F900F90FD
S1130B30CF9108954F925F926F927F928F929F927E
S1130B40AF92BF92CF92DF92EF92FF920F931F93D7
S1130B50CF93DF934C01FC01C081D181EC2FEF7066
S1130B602E2F30E040E050E060E070E080E090E064
S1130B7002E00E94700EA22EB32EC42ED52EE62EB5
S1130B80F72EF82F192F05E00E94700E0F2F0E94E8
S1130B90920EAE2EB12CC12CD12CE12CF12C00E004
S1130BA010E00E94890E422E532E642E752EB62F0D
S1130BB0A72FF82FE92F02E00E94700EA22EB32E69
S1130BC0C42ED52EE62EF72E082F192F242D352DC1
S1130BD0462D572D6B2F7A2F8F2F9E2F0E94890E13
S1130BE00F2EF8EEAF2EF02D0F2EF3E0BF2EF02DCA
S1130BF0C12CD12CE12CF12C00E010E00E94130E4A
S1130C00D295C295CF70CD27DF70CD27CE01880F46
S1130C10991FCC0FDD1FCC0FDD1FCC0FDD1FC80FBC
S1130C20D91FC20FD11DF401D183C083DF91CF91AD
S1130C301F910F91FF90EF90DF90CF90BF90AF90F6
S1130C409F908F907F906F905F904F900895AF9298
S1130C50BF92CF92DF92FF920F931F93CF93DF93B4
S1130C60CDB7DEB729970FB6F894DEBF0FBECDBF60
S1130C70F82E8B015A010E94E00D6F2DC8010E94CD
S1130C80A40C6F2D84E40E947B0C8F2D0E94C50D53
S1130C908823D9F38F2D0E94E00D6F2DC8010E9487
S1130CA0A40C6F2D8EEB0E947B0C8E010F5F1F4FE7
S1130CB06E018AE0C80ED11C8F2D0E94910CF801A0
S1130CC081938F01EC15FD05B9F7CE0101960E94C1
S1130CD05B0C81111FC08A8190E0982F882729819D
S1130CE0822BF50191838083C5010E949A0580912E
S1130CF09501E82FF0E0E356FE4F9D81908381300B
S1130D0029F08F5F8093950180E005C010929501D2
S1130D1080E001C081E029960FB6F894DEBF0FBED3
S1130D20CDBFDF91CF911F910F91FF90DF90CF90B6
S1130D30BF90AF9008956817790718F48D9880E0F4
S1130D4008958D9A81E0089590919401981749F03F
S1130D50981710F091E001C09FEF80939401892FC0
S1130D60089580E008954F925F926F927F928F92E0
S1130D709F92AF92BF92CF92DF92EF92FF920F9326
S1130D801F93CF93DF93CDB7DEB72A970FB6F894AE
S1130D90DEBF0FBECDBF082F8AE0E2E7F0E0DE0140
S1130DA0119601900D928A95E1F78091B70185FF24
S1130DB079C0043008F06BC00E94520360E080E008
S1130DC00E943F03E02FF0E0EE0FFF1F21E030E030
S1130DD02C0F3D1FE20FF31F81818F9380818F932E
S1130DE00E949B0E0F900F9080919C01811140C036
S1130DF081E0800F80939C01013099F028F002304B
S1130E00E9F0033041F149C086EF94E090939901F1
S1130E108093980188EB91E09093BB018093BA0191
S1130E203CC08EEF90E090939901809398018AE4FE
S1130E3090E09093BB018093BA012FC084E690E0C8
S1130E4090939901809398018EE690E09093BB0172
S1130E508093BA0122C081E090E09093990180933D
S1130E60980186E991E09093BB018093BA0115C083
S1130E7084E090E0909399018093980180E790E05A
S1130E809093BB018093BA0110929C0106C0F89420
S1130E908091B701877F8093B7018091B7018F7DDF
S1130EA08093B70110919C01123009F4F8C030F41A
S1130EB0112359F0113009F4E8C024C1133009F4A6
S1130EC0FEC0143009F405C11DC10E9452037724E9
S1130ED07394662463940F2EF5E24F2EF02D0F2E9B
S1130EE0F4E65F2EF02D0F2EF5EDCF2EF0E0DF2E81
S1130EF0F02D0F2EF8E5EF2EF1E0FF2EF02D0F2E42
S1130F00FFED8F2EF0E09F2EF02D0F2EFAEDAF2E79
S1130F10F0E0BF2EF02D02C01F5F7394612F80E0BC
S1130F200E943F03662D011360E0E12FF0E0EE0F15
S1130F30FF1F81E090E08C0F9D1FE80FF91F808157
S1130F4091810E94C0041130F1F138F0123009F49B
S1130F5050C0133009F483C094C04091B80150913B
S1130F60B9019A01ADECBCEC0E94020E96958795EE
S1130F7096958795969587959C01220F331F880F28
S1130F80991F880F991F880F991F820F931F9A0129
S1130F90281B390BC9019F932F939A010E94020EBB
S1130FA09695879596958795969587959F938F9314
S1130FB0FF92EF920E949B0E0F900F900F900F9054
S1130FC00F900F90A9CF2AB53BB51F924F92529E16
S1130FD0C001539E900D11241F929F93DF92CF92D4
S1130FE00E949B0E0F900F900F900F900F900F90F8
S1130FF093CF40916E0050916F009A01ADECBCEC20
S11310000E94020E96958795969587959695879555
S11310109C01220F331F880F991F880F991F880F77
S1131020991F820F931F9A01281B390BC9019F93A3
S11310302F939A010E94020E96958795969587950F
S1131040969587959F938F93FF92EF920E949B0EA4
S11310500F900F900F900F900F900F905DCF809195
S1131060960180FD07C0BF92AF920E949B0E0F9025
S11310700F9052CF9F928F920E949B0E0F900F90D1
S11310804BCF34E03715F0F147CF4091B801509180
S1131090B90121E062E08EE10E94BC0333C02AB5AD
S11310A03BB544E6429FC001439F900D112420E0CC
S11310B0492F50E062E08EE10E94BC0323C04091BE
S11310C06E0050916F0021E062E08EE10E94BC034B
S11310D019C062E08EE10E943F038091960180FD79
S11310E009C084EE90E09F938F930E949B0E0F9013
S11310F00F9008C08CEE90E09F938F930E949B0EFC
S11311000F900F902A960FB6F894DEBF0FBECDBF96
S1131110DF91CF911F910F91FF90EF90DF90CF90CF
S1131120BF90AF909F908F907F906F905F904F9003
S11311300895CF93DF93CDB7DEB729970FB6F89410
S1131140DEBF0FBECDBF80E690E09093BF018093D9
S1131150BE0182E087BB94E093BF89BF88E08CBF67
S113116081E88FBD8DE08EBD1DBC1CBC80E890E085
S11311709BBD8ABD1A8219821C821B821D82109219
S1131180B70180E090E00E9442119093B9018093EE
S1131190B801019661F46CE271E080E090E00E9495
S11311A048118CE291E09093B9018093B8010E94B8
S11311B0660380E80E948B0D9E012B5F3F4F40E841
S11311C062E087EA91E00E94230D182F8D8182301E
S11311D069F4153059F00E94520387E291E09F931D
S11311E08F930E949B0E0F900F90B0C20E945203E7
S11311F08D811F928F938EE291E09F938F930E9433
S11312009B0E812F0E9457050F900F900F900F9007
S11312109DC200E620E040E06FEA71E080E80E94B1
S1131220E2048430B1F71F821E82C12CD12C812CA0
S1131230912C0F2EF5E84F2EF1E05F2EF02D0F2E9E
S1131240FFE3AF2EF1E0BF2EF02D0F2EF8E56F2E49
S1131250F1E07F2EF02D0F2EF9E42F2EF1E03F2E3A
S1131260F02D8091B70183FD24C2F12C0F2D10E0E5
S1131270A801440F551F81E090E08C0F9D1F480F7B
S1131280591FB801660F771F660F771F660F771F08
S113129069557E4F80E80E942706E82E8823B1F026
S11312A00E9452030F5F1F4F1F930F93BF92AF9281
S11312B00E949B0E61E080E00E943F038E2D0E94FD
S11312C057050F900F900F900F9001C0F39491E089
S11312D09F1560F6E980FA808B819C81E80EF91EE7
S11312E0870116950795B601C8010E949B06909147
S11312F0B70180FB92F99093B70190FD17C0C0909D
S1131300B801D090B901C6010A978017910738F047
S11313106801EAE0CE0ED11CFAE0FF8302C021E0AE
S11313202F838091B70181608093B7018091B701C9
S113133082FF5CC08D7F8093B7013E81332339F1F6
S11313403F5F3E833A3059F5888599858017910728
S113135019F58091B8019091B901C816D906F1F038
S11313608AB59BB58F3F910509F038F480919601B9
S1131370909197018170992702C080E090E02AB58E
S11313803BB5820F931F9BBD8ABD1E8208C019877F
S1131390088791E09E8303C01E8201C01E82C6019D
S11313A044970817190708F050C08AB59BB5863FC3
S11313B0910538F48091960180FF06C02AE030E060
S11313C005C020E030E002C020E030E08AB59BB5E3
S11313D0820F931F9BBD8ABD8091B7018E7F80933E
S11313E0B70186E00E945705460132C00815190569
S11313F070F581FD2DC08091B70182608E7F80934E
S1131400B70180916E0090916F008C0D9D1D881521
S11314109905F0F42AB53BB5EF818E2F90E0821741
S1131420930738F48091960180FF06C02E2F30E098
S113143005C020E030E002C020E030E08AB59BB572
S1131440821B930B9BBD8ABD03C0460101C04801AA
S11314500E94520349815A819A01ADECBCEC0E946E
S1131460020E9695879596958795969587959C01F6
S1131470220F331F880F991F880F991F880F991FF8
S1131480820F931F9A01281B390BC9019F932F9335
S11314909A010E94020E9695879596958795969542
S11314A087959F938F937F926F920E949B0E60E02B
S11314B08EE10E943F034B815C819A01ADECBCEC50
S11314C00E94020E96958795969587959695879591
S11314D09C01220F331F880F991F880F991F880FB3
S11314E0991F820F931FFA01E81BF90BCF019F93F9
S11314F0EF939A010E94020E96958795969587958B
S1131500969587959F938F937F926F920E949B0EDF
S113151061E080E00E943F03C60144979F938F934C
S1131520DF92CF923F922F920E949B0E62E080E066
S11315300E943F034091B8015091B9019A01ADEC6A
S1131540BCEC0E94020E9695879596958795969584
S113155087959C01220F331F880F991F880F991FAD
S1131560880F991F820F931F9A01281B390BC901F9
S11315709F932F939A010E94020E969587959695B4
S11315808795969587959F938F9383E591E09F9395
S11315908F930E949B0E63E080E00E943F03C4018E
S11315A08C199D099F938F939F928F922EE531E022
S11315B03F932F930E949B0E64E080E00E943F03C0
S11315C02AB53BB58091B70181701F928F933F93E9
S11315D02F938AE691E09F938F930E949B0E0FB600
S11315E0F894DEBF0FBECDBF65E080E00E943F03EC
S11315F09801ADECBCEC0E94020E969587959695E9
S11316008795969587959C01220F331F880F991F04
S1131610880F991F880F991F820F931F081B190B9E
S11316201F930F9397010E94020E929582958F70DB
S113163089279F7089279F938F9387E791E09F93D2
S11316408F930E949B0E0F900F900F900F900F900E
S11316500F90829B05C08091B7018F7E8093B70164
S11316608299FFCD8091B70184FDFBCD8D981092B6
S11316709C018091B70188608F7D80618093B70160
S113168024E030E030939901209398013093710065
S11316902093700080E790E09093BB018093BA019F
S11316A00E945203E0E7F0E080810E94B306789440
S11316B0D8CDE091BA01F091BB0180810E94A406CB
S11316C0811104C08091B70185FFF3CFE091BA0185
S11316D0F091BB0180819181992334F48091980128
S11316E09091990191838083E091BA01F091BB01BB
S11316F020813181809198019091990182179307FB
S113170010F411821082E0E7F0E080810E94B306B9
S113171065E080E00E943F038091B70183FB882746
S113172080F91F928F93E091BA01F091BB018181FE
S11317308F9380818F935F924F920E949B0E0F90A4
S11317400F900F900F900F900F908BCD00E620E03C
S113175040E067EA71E080E80E94E2048430B1F777
S113176058CD1F920F920FB60F9211242F933F93CF
S11317704F935F938F939F93EF93FF9312BE80B326
S1131780887180939A01811104C080E880939B0141
S113179044C090919B01992309F43FC08031E1F04A
S11317A0883119F08830C9F528C09038B1F1E0913A
S11317B0BA01F091BB012081318199231CF481E0AD
S11317C090E002C08FEF9FEFA901481B590B518392
S11317D0408310929B0121C0915090939B019530BE
S11317E0E0F4E091BA01F091BB018081918101970D
S11317F09183808310929B0110C09F5F90939B0103
S11318009B3F58F0E091BA01F091BB018081918136
S113181001969183808310929B01829B05C08091E5
S1131820B7018F7E8093B701829908C08091B70178
S113183084FD04C0806180628093B701FF91EF91C1
S11318409F918F915F914F913F912F910F900FBE78
S11318500F901F90189598E038E1282F262720FD37
S113186002C0669503C063276695606886959150AB
S1131870A1F7862F0895EF92FF920F931F93CF93B2
S1131880DF937C018C01095F1F4FEC0160E08991BB
S11318900E942B0C682F0C171D07C9F781E0F70174
S11318A09781961301C080E0DF91CF911F910F9132
S11318B0FF90EF900895EF92FF920F931F93CF93B1
S11318C0DF937C018C01085F1F4FEC0160E089917C
S11318D00E942B0C682F0C171D07C9F781E0F70134
S11318E09085961301C080E0DF91CF911F910F91F5
S11318F0FF90EF9008951F93CF93DF93D82F162F67
S1131900C8E0D0FF04C0812F0E94970D03C0812F2F
S11319100E94AC0DD695C150A1F7DF91CF911F91D4
S113192008951F93CF93DF93182FD8E0C0E0C69596
S1131930812F0E94C50D8111C068D150C1F78C2F31
S1131940DF91CF911F910895FF920F931F93CF932F
S1131950DF938C01F62E85E50E947B0CE801085F7D
S11319601F4F6F2D89910E947B0CC017D107C9F7B7
S1131970DF91CF911F910F91FF900895CF92DF9245
S1131980EF92FF920F931F93CF93DF938C01D62E88
S1131990F42E642F80EF0E947B0CC1E0C12CD1E0B7
S11319A08F2D0E94C50DE82E8F2D0E94C50DEE20AF
S11319B009F43DC0811139C0F80190819C2B9083BA
S11319C01DC0F80120819C2F90959223908316C00E
S11319D0DD1205C0F80180818C2B80830FC0DD16D9
S11319E040F4F80190818C2F809589238083CD2E3B
S11319F005C0F80190819C2349F004C0F80190814E
S1131A009C2329F08F2D0E94970D04C0CD2E8F2D7D
S1131A100E94AC0DDF5FCC0F19F40F5F1F4FC1E0C4
S1131A20D13409F0BDCF8C2D05C08FEF03C08823BE
S1131A3079F2C7CFDF91CF911F910F91FF90EF9073
S1131A40DF90CF900895BF92CF92DF92EF92FF92F2
S1131A500F931F93CF93DF937C01B42E6901662308
S1131A6071F0FC0120E008C011928E179F07E1F786
S1131A702F5FFC01621719F0CF010896F5CFDE2D18
S1131A80CF2DEE2DFF2D10E000E002C0D82FC92F7E
S1131A9088E0AD2FBC2F01900D928A95E1F78B2D34
S1131AA00E94E00D882351F14B2D602F8D2F9C2F28
S1131AB00E94BE0C082F1F5FC70128E0129F800DF3
S1131AC0911D1124ED2FFC2F0111E0CF1123C1F042
S1131AD0D0E0C0E005E0C7010E943B0C811105C0C5
S1131AE0F60190819F5F908301C0D02FCF5FF8E013
S1131AF0EF0EF11C1C13EFCF8D2F03C08FEF01C02D
S1131B0080E0DF91CF911F910F91FF90EF90DF90D4
S1131B10CF90BF90089591B38095982391BB92B3D1
S1131B20892382BB8DEE90E00197F1F708952FB7DA
S1131B30F89491B3982B91BB92B38095982392BB60
S1131B4091B3982391BB92B3892382BB86E28A9591
S1131B50F1F700002FBF08952FB7F89491B3982B95
S1131B6091BB92B38095982392BB93E29A95F1F737
S1131B7000C091B3982391BB92B3892382BB82E0C6
S1131B808A95F1F700002FBF08953FB7F89491B3F9
S1131B90982B91BB22B3982F9095292322BB21B374
S1131BA0292321BB22B3922392BB00C000C00000B2
S1131BB090B320E22A95F1F700003FBF89230895EE
S1131BC03FB7F89491B3982B91BB22B3982F90957B
S1131BD0292322BBEDEEF0E03197F1F721B329235D
S1131BE021BB22B3922392BBFAE2FA95F1F70000EB
S1131BF090B3E9ECF0E03197F1F700C03FBF909566
S1131C0089230895A29FB001B39FC001A39F700DC3
S1131C10811D1124911DB29F700D811D1124911DF0
S1131C200895689401C0E8948F929F92CF93DF93B4
S1131C300E941F0EDF91CF919F908F90089588246A
S1131C409924F401E401B0E49F93AA279A158B0424
S1131C509C04ED05FE05CF05D007A10798F4AD2F30
S1131C60DC2FCF2FFE2FE92D982C892E982F872F2C
S1131C70762F652F542F432F322F2227B85031F758
S1131C80BF9127C01B2EBF91BB27220F331F441FB8
S1131C90551F661F771F881F991F881C991CEE1FEC
S1131CA0FF1FCC1FDD1FAA1FBB1F8A149B04EC055A
S1131CB0FD05CE05DF05A007B10748F08A189B088B
S1131CC0EC09FD09CE09DF09A00BB10B21601A94C0
S1131CD0E1F62EF49401AF01BE01CD01000C08958C
S1131CE00F93083090F0982F872F762F652F542F5D
S1131CF0432F322F22270850F4CF220F331F441FC3
S1131D00551F661F771F881F991F0A95B2F70F91F9
S1131D1008952A0D3B1D4C1D5D1D6E1D7F1D801FEA
S1131D20911F08952A193B094C095D096E097F0921
S1131D30800B910B0895A0E0B0E0E1EAFEE00C9482
S1131D407A11AE014B5F5F4FFA0161917191AF015E
S1131D508091BE019091BF010E94B10EE2E00C940B
S1131D609611ABE0B0E0E7EBFEE00C946A116C0175
S1131D707B018A01FC0117821682838181FFCCC119
S1131D80CE0101963C01F6019381F70193FD859103
S1131D9093FF81917F01882309F4BAC1853239F414
S1131DA093FD859193FF81917F01853229F4B601DA
S1131DB090E00E94A810E7CF912C212C312CFFE158
S1131DC0F315D8F08B3279F038F4803279F083321D
S1131DD0A1F4232D20611DC08D3261F0803369F49C
S1131DE0232D216016C0832D8260382EE32DE460FC
S1131DF03E2E2AC0F32DF8601DC037FC2DC020ED07
S1131E00280F2A3040F08E32B9F436FC81C1232DDC
S1131E102064322E19C036FE06C08AE0989E200D3A
S1131E201124922E11C0EAE02E9E200D1124222EA0
S1131E30F32DF0623F2E08C08C3621F4832D806888
S1131E40382E02C0883641F4F70193FD859193FF43
S1131E5081917F018111B3CF982F9F7D9554933049
S1131E6028F40C5F1F4F9FE399830DC0833631F034
S1131E70833771F0833509F059C021C0F80180819E
S1131E8089830E5F1F4F88248394912C530113C0C0
S1131E902801F2E04F0E511CF801A080B18036FEFB
S1131EA003C0692D70E002C06FEF7FEFC5010E948F
S1131EB09D104C018201F32DFF773F2E16C028019F
S1131EC022E0420E511CF801A080B18036FE03C00E
S1131ED0692D70E002C06FEF7FEFC5010E94921080
S1131EE04C01F32DF0683F2E820133FC1BC0822D80
S1131EF090E088169906B0F4B60180E290E00E9462
S1131F00A8102A94F4CFF50137FC859137FE81910E
S1131F105F01B60190E00E94A81021102A9421E0EC
S1131F20821A91088114910471F7E8C0843611F083
S1131F30893641F5F80137FE07C0608171818281DD
S1131F4093810C5F1F4F08C060817181072E000CC4
S1131F50880B990B0E5F1F4FF32DFF763F2E97FFD3
S1131F6009C090958095709561957F4F8F4F9F4FD5
S1131F70F0683F2E2AE030E0A3010E94E410882E8E
S1131F80861845C0853731F4232D2F7EB22E2AE0E2
S1131F9030E025C0932D997FB92E8F36C1F018F407
S1131FA0883579F0B5C0803719F0883721F0B0C092
S1131FB0E92FE061BE2EB4FE0DC0FB2DF460BF2EF0
S1131FC009C034FE0AC0292F2660B22E06C028E0BC
S1131FD030E005C020E130E002C020E132E0F80149
S1131FE0B7FE07C060817181828193810C5F1F4FAE
S1131FF006C06081718180E090E00E5F1F4FA301F5
S11320000E94E410882E8618FB2DFF773F2E36FEA3
S11320100DC0232D2E7FA22E891458F434FE0BC03C
S113202032FC09C0832D8E7EA82E05C0B82CA32CAB
S113203003C0B82C01C0B92CA4FE0FC0FE01E80DEA
S1132040F11D8081803321F49A2D997EA92E09C037
S1132050A2FE06C0B394B39404C08A2D867809F016
S1132060B394A3FC11C0A0FE06C0B21488F4280CDB
S1132070922C9B180EC0B21460F4B60180E290E07A
S11320800E94A810B394F7CFB21418F42B1802C00E
S1132090982C212CA4FE10C0B60180E390E00E948D
S11320A0A810A2FE17C0A1FC03C088E790E002C0FC
S11320B088E590E0B6010CC08A2D867859F0A1FE1F
S11320C002C08BE201C080E2A7FC8DE2B60190E081
S11320D00E94A810891438F4B60180E390E00E94AD
S11320E0A8109A94F7CF8A94F301E80DF11D80812A
S11320F0B60190E00E94A8108110F5CF222009F4C7
S113210042CEB60180E290E00E94A8102A94F6CF55
S1132110F6018681978102C08FEF9FEF2B96E2E153
S11321200C948611FC010590615070400110D8F7A1
S1132130809590958E0F9F1F0895FC01615070400B
S113214001900110D8F7809590958E0F9F1F0895E8
S11321500F931F93CF93DF93FB01238121FD03C0D2
S11321608FEF9FEF2CC022FF16C046815781248138
S113217035814217530744F4A081B1819D012F5F3B
S11321803F4F318320838C93268137812F5F3F4FCC
S11321903783268314C08B01EC01FB010084F18595
S11321A0E02D0995892BE1F6D80116968D919C9125
S11321B01797019617969C938E931697CE01DF91ED
S11321C0CF911F910F910895FA01AA27283051F158
S11321D0203181F1E8946F936E7F6E5F7F4F8F4F54
S11321E09F4FAF4FB1E03ED0B4E03CD0670F781FB3
S11321F0891F9A1FA11D680F791F8A1F911DA11D98
S11322006A0F711D811D911DA11D20D009F46894D0
S11322103F912AE0269F11243019305D3193DEF678
S1132220CF010895462F4770405D4193B3E00FD02E
S1132230C9F7F6CF462F4F70405D4A3318F0495D19
S113224031FD4052419302D0A9F7EACFB4E0A695FC
S11322509795879577956795BA95C9F7009761051E
S1132260710508959B01AC010A2E06945795479574
S113227037952795BA95C9F7620F731F841F951F69
S1132280A01D0895A8E1B0E042E050E00C944F1185
S11322900E945D11272F0C945E11DC01CB01FC011F
S11322A0E199FECF06C0FFBBEEBBE09A31960DB2BA
S11322B00D9241505040B8F70895262FE199FECF72
S11322C09FBB8EBB2DBB0FB6F894E29AE19A0FBE6A
S11322D0019608952F923F924F925F926F927F9250
S11322E08F929F92AF92BF92CF92DF92EF92FF9222
S11322F00F931F93CF93DF93CDB7DEB7CA1BDB0BCE
S11323000FB6F894DEBF0FBECDBF09942A88398872
S113231048885F846E847D848C849B84AA84B98479
S1132320C884DF80EE80FD800C811B81AA81B98185
S1132330CE0FD11D0FB6F894DEBF0FBECDBFED0199
S10923400895F894FFCF9C
S11323460000000200000000D304000000000800A2
S11323560100F400FF000A0114011F01CED8C8C110
S1132366CAC020D7D2C5CDC8DF2000CEF2F0E8F629
S113237620F2E5ECEF2DF0E000CED820CFCEC8D188
S1132386CAC02043524300D2E5ECEFE5F0E0F2F395
S1132396F0E0202020EFE0E4E0E5F200D2E5ECEF07
S11323A6E5F0E0F2F3F0E0202020F1F2E0E1E8EBE2
S11323B6FCEDE0FF002564256300D0F3F7ED00C0D3
S11323C6E2F2EE0020D0F3F7EDEEE900C0E2F2EE21
S11323D6ECE0F20020CFF0E5E4E5EB2074200020E9
S11323E6CCEEF9EDEEF1F2FC200020C2FBE1E5E3D0
S11323F62074200020D0F3F72FC0E2F2EE20002054
S1132406C2FBF5EEE42000C2D1C520CECA00CA2D17
S1132416E2EE20E4E0F2F7E8EAEEE220256400C406
S1132426E0F2F7E8EA2025640048202564204C20E1
S1132436256400C2E5F0F52025642E256400527457
S11324462025642064542025640050574D202564BB
S113245620466C20256400D1F0E5E4EDFFFF20253D
S1132466642E2564006974656D20257820666C20C9
S107247625640000D5
S9030000FC
