:100000000C940E030C942B030C942B030C942B03D5
:100010000C942B030C942B030C942B030C942B03A8
:100020000C942B030C942B030C942B030C942B0398
:100030000C942B030C942B030C942B030C942B0388
:100040000C942B030C942B030C942B030C942E0B6D
:100050000C942B03FCFE070303030307FEFC3F7F06
:10006000E0C0C0C0C0E07F3F30180C06FFFF0000BA
:100070000000C0C0C0C0FFFFC0C0C0C0181C0E0739
:10008000030383C7FE7CE0F0F8DCCEC7C3C1C0C069
:10009000030383C3E3F3BB9F0F073070E1C1C1C10A
:1000A000C1E37F3E0080C0F03C0F83810000060763
:1000B00007060606FFFF06067EFFC3C3C3C3C3C30E
:1000C000830360E0C0C0C0C0C0E1FF7FC0E0F0B803
:1000D0009C8E878301007FFFE3C1C1C1C1E3FF7E26
:1000E000030303030303C3F33F1F000000F0FC1FDF
:1000F000070100001C3EE7C3C3C3C3E73E1C3E7FAD
:10010000E3C1C1C1C1E37F3E7CFEC783838383C754
:10011000FFFE000081C1E171391D0F0700E0E0E042
:100120000000005F00000007000700147F147F1428
:10013000242A7F2A1223130864623649552250006C
:1001400005030000001C2241000041221C0014088D
:100150003E081408083E080800503000000808084F
:100160000808006060000020100804020000000081
:100170000000005F00000007000700147F147F14D8
:10018000242A7F2A1223130864623649552250001C
:1001900005030000001C2241000041221C0014083D
:1001A0003E081408083E08080050300000080808FF
:1001B0000808006060000020100804020000000031
:1001C0000000005F00000007000700147F147F1488
:1001D000242A7F2A122313086462364955225000CC
:1001E00005030000001C2241000041221C001408ED
:1001F0003E081408083E08080050300000080808AF
:100200000808006060000020100804023E514945C3
:100210003E44427F404042615149462141454B3175
:100220001814127F1027454545393C4A4949300189
:10023000710905033649494936064949291E0036E0
:100240003600000056360000081422410014141431
:10025000141400412214080201510906324979415F
:100260003E7E1111117E7F494949363E414141226E
:100270007F4141221C7F494949417F090909013ECB
:100280004149497A7F0808087F00417F41002040AA
:10029000413F017F081422417F404040407F020CD3
:1002A000027F7F0408107F3E4141413E7F090909DA
:1002B000063E4151215E7F09192946464949493187
:1002C00001017F01013F4040403F1F2040201F3F70
:1002D0004038403F631408146307087008076151F1
:1002E000494543007F41410002040810200041417C
:1002F0007F0004020102044040404040000102042B
:100300000020545454787F484444383844444420AE
:10031000384444487F3854545418087E0901020C6C
:100320005252523E7F0804047800447D4000204031
:10033000443D007F1028440000417F40007C0418A9
:1003400004787C0804047838444444387C14141439
:1003500008081414187C7C080404084854545420D9
:10036000043F4440203C4040207C1C2040201C3C5A
:100370004030403C44281028440C5050503C4464C9
:10038000544C44000836410000007F000000413614
:100390000800100808100878464146780000000060
:1003A0000000005F00000007000700147F147F14A6
:1003B000242A7F2A122313086462364955225000EA
:1003C00005030000001C2241000041221C0014080B
:1003D0003E081408083E08080050300000080808CD
:1003E00008080060600000201008040200000000FF
:1003F0000000005F00000007000700147F147F1456
:10040000242A7F2A12231308646236495522500099
:1004100005030000001C2241000041221C001408BA
:100420003E081408083E080800503000000808087C
:1004300008080060600000201008040200000000AE
:100440000000005F00000007000700147F147F1405
:10045000242A7F2A12231308646236495522500049
:1004600005030000001C2241000041221C0014086A
:100470003E081408083E080800503000000808082C
:100480000808006060000020100804023E51494541
:100490003E00427F400042615149462141454B3177
:1004A0001814127F1027454545393C4A4949300107
:1004B000710905033649494936064949291E00365E
:1004C00036000000563600000814224100141414AF
:1004D0001414004122140802015109067E11111161
:1004E0007E7F494949317F494949367F01010103EE
:1004F000702927217F7F4949494177087F08774143
:10050000414149767F1008047F7F1009047F7F08EE
:1005100014224120413F017F7F020C027F7F0808A7
:10052000087F3E4141413E7F0101017F7F0909096A
:10053000063E4141412201017F0101472810080781
:100540001E217F211E63140814633F2020205F07B3
:100550000808087F7F407F407F3F203F205F017F6A
:100560004848307F4830007F007F48483041414153
:10057000493E7F083E413E462919097F2054545484
:10058000783C4A4A49317C545428007C0404040CC9
:10059000722A26227E38545454186C107C106C44F5
:1005A000445454387C2010087C7C2112097C7C1037
:1005B00028440020443C047C7C0810087C7C1010FB
:1005C000107C38444444387C0404047C7C141414A7
:1005D00008384444442004047C04044428100804DB
:1005E00008147E140844281028443C40407C400CE9
:1005F0001010107C7C407C407C3C203C207C047CA7
:100600005050207C5020007C007C505020284444D6
:1006100054387C10384438485434147C11241FBE9C
:10062000CFE5D4E0DEBFCDBF11E0A0E6B0E0EEE262
:10063000F5E202C005900D92AA3BB107D9F721E07F
:10064000AAEBB1E001C01D92AF3CB207E1F70E94F6
:10065000D9070C9495120C94000098E0DC9888233C
:1006600014F4DB9A01C0DB98DC9A880F9150B1F743
:100670000895DA98D9980E942D03D99A0895CF93B6
:10068000C82F862F877080640E9439038C2F806862
:100690000E943903CF910895DA9AD9980E942D03C8
:1006A000D99A0895CF93DF9360E080E00E943F03E2
:1006B000CEE8D3E080E00E944C032197D9F760E0B8
:1006C00080E00E943F03DF91CF9108958AB38F614C
:1006D0008ABBD89AD99AD8988FE493EC0197F1F70E
:1006E00000C00000D89A81E20E94390383E10E9491
:1006F000390384E00E94390388EB0E94390380E2C9
:100700000E9439038CE00E9439030E94520360E08A
:1007100080E00E943F030895CF93C82F81E20E949A
:1007200039038C2F80680E94390380E20E943903CC
:10073000CF910895EF92FF920F931F93CF93DF9382
:10074000062F90E0EC01CC0FDD1FCC0FDD1F8C0FCE
:100750009D1FEC01C45EDE4F7E0185E0E80EF11CBA
:10076000013021F4FE011491109502C0FE01149194
:10077000812F0E944C03812F0E944C032196CE159D
:10078000DF0571F7C1E0013009F0C0E0C1958C2FA1
:100790000E944C038C2F0E944C03DF91CF911F913C
:1007A0000F91FF90EF9008957F928F929F92AF925A
:1007B000BF92CF92DF92EF92FF920F931F93CF934E
:1007C000DF9300D000D000D0CDB7DEB7982EB62E84
:1007D0006A01822E9A01ADECBCEC0E94D70E969570
:1007E000879596958795969587952DEC829F212DD7
:1007F0001124269526952695422F440F342F330F2A
:10080000330F340F482F431B34E1439FA0011124C1
:100810004C5A5F4F5A834983222309F4A8C09DECA8
:10082000299F912D1124969596959695990F392F7C
:10083000330F330F930F291B44E1249F90011124A0
:100840002C5A3F4F3C832B8399E2899F812D1124A1
:1008500082958F7009F491C0A4E18A9FC001112490
:100860008C5A9F4F9E838D836894AA24A1F887C0D9
:100870001F5F0F5FD701ED91FC91E10FF11D849196
:100880000E944C03193029F4672D892D0E943F03E3
:10089000EFCF043168F380E00E944C031BE0190D98
:1008A0006B2D812F0E943F03AA94AA2054F4B1E03B
:1008B0008B121DC013C00F2EF9E07F2EF02D7B0C84
:1008C00001C0912E01E010E0EA2CEE0CFF0821E0BF
:1008D00030E02C0F3D1FE20EF31ECCCF69E06B0D14
:1008E000812F0E943F0360E080E00E949A0331E183
:1008F000930E6B2D892D0E943F039601ADECBCEC4D
:100900000E94D70E9695879596958795969587958B
:100910009C01220F331F880F991F880F991F880F82
:10092000991F820F931FC81AD90A84E18C9D700108
:100930008D9DF00C112401E010E049E0B40E02C0DE
:100940001F5F0F5FF701E10FF11DEC5AFF4F84911C
:100950000E944C03193029F46B2D892D0E943F030E
:10096000EFCF043168F380E00E944C030DC06B2D83
:10097000892D0E943F03A12C9ECFAA24A3946B2D06
:10098000892D0E943F0397CF26960FB6F894DEBFBD
:100990000FBECDBFDF91CF911F910F91FF90EF90D0
:1009A000DF90CF90BF90AF909F908F907F900895F1
:1009B0001F93CF93DF93EC018881882341F0162F9A
:1009C0002196612F0E949A0389918111FACFDF91BC
:1009D000CF911F910895CF93C82F8A3019F48DE0DD
:1009E0000E94EB0460E08C2F0E949A0380E090E06C
:1009F000CF910895CF93C82F0E945203C530C9F1FB
:100A000030F4C130B9F068F0C23051F155C0C73090
:100A100009F44AC008F43FC0C830C9F0CF3F91F193
:100A20004BC08BE890E09F938F930E94700F0F90C4
:100A30000F9042C061E080E00E943F0382E990E0B5
:100A40009F938F930E94700F0F900F9035C081EA93
:100A500090E09F938F930E94700F0F900F902CC087
:100A60008FEA90E09F938F930E94700F0F900F90EA
:100A700023C08DEB90E09F938F930E94700F0F9097
:100A80000F901AC08BEC90E09F938F930E94700F91
:100A90000F900F9011C087ED90E09F938F930E946D
:100AA000700F0F900F9008C08CEE90E09F938F9383
:100AB0000E94700F0F900F90CF91089568177907DB
:100AC00018F48D9880E008958D9A81E008959091B2
:100AD000BA01981749F0981710F091E001C09FEF04
:100AE0008093BA01892F089580E008952F923F9254
:100AF0004F925F926F927F928F929F92AF92BF922E
:100B0000CF92DF92EF92FF920F931F93CF93DF93D9
:100B1000CDB7DEB768970FB6F894DEBF0FBECDBF76
:100B2000082F8CE0E3E7F0E0DE01119601900D92D2
:100B30008A95E1F78CE0EFE7F0E0DE011D96019089
:100B40000D928A95E1F78091C20185FFAAC00E94AB
:100B5000520360E080E00E943F03E02FF0E0EE0FE0
:100B6000FF1F21E030E02C0F3D1FE20FF31F8181BA
:100B70008F9380818F930E94700F0F900F908091C0
:100B8000C10181117BC081E0800F8093C1010230DF
:100B900039F128F4002351F00130A9F07DC0043070
:100BA000C9F158F1053009F442C076C086EF94E0EF
:100BB0009093BE018093BD0185EC91E09093C801B4
:100BC0008093C70169C08EEF90E09093BE0180933F
:100BD000BD018AE490E09093C8018093C7015CC096
:100BE00084E690E09093BE018093BD0183EC91E098
:100BF0009093C8018093C7014FC081E090E090932B
:100C0000BE018093BD018BEB91E09093C80180936E
:100C1000C70142C080E890E09093BE018093BD017F
:100C20008EE690E09093C8018093C70135C0F89498
:100C30008091C201877F8093C2016091C50170914C
:100C4000C60183E090E00E9436126AB57BB582E06F
:100C500090E00E9425126091C30181E090E00E9423
:100C600025126091BB0180E090E00E942512609106
:100C70006E0082E790E00E9425120EC085E090E0B1
:100C80009093BE018093BD0180E790E09093C801EE
:100C90008093C7011092C1018091C2018F7D809322
:100CA000C2011091C101123009F416C130F41123B0
:100CB00069F0113009F406C150C1143009F426C19D
:100CC00008F41AC1153009F43BC147C10E94520310
:100CD00055245394442443940F2EF1EAEF2EF1E06F
:100CE000FF2EF02D0F2EF7E36F2EF1E07F2EF02D6B
:100CF0000F2EF5E08F2EF1E09F2EF02D0F2EFAE64D
:100D0000AF2EF1E0BF2EF02D0F2EF5E22F2EF02D9D
:100D10000F2EF4E63F2EF02D0F2EFAEACF2EF1E043
:100D2000DF2EF02D02C01F5F5394612F80E00E94E0
:100D30003F03642D011360E0E12FF0E0EE0FFF1F91
:100D400081E090E08C0F9D1FE80FF91F8485958549
:100D50000E94D804123009F459C028F4112351F02C
:100D60001130F1F1AAC0133009F486C0143009F42F
:100D700095C0A3C04091C5015091C6019A01ADEC48
:100D8000BCEC0E94D70E969587959695879596957B
:100D900087959C01220F331F880F991F880F991F79
:100DA000880F991F820F931F9A01281B390BC901C5
:100DB0009F932F939A010E94D70E969587959695AB
:100DC0008795969587959F938F93FF92EF920E94B8
:100DD000700F0F900F900F900F900F900F90A3CF68
:100DE0002AB53BB51F922F92329EC001339E900DC3
:100DF00011241F929F93DF92CF920E94700F0F9049
:100E00000F900F900F900F900F908DCF4091C301D6
:100E10005091C4019A01ADECBCEC0E94D70E96959E
:100E2000879596958795969587959C01220F331FF8
:100E3000880F991F880F991F880F991F820F931F82
:100E40009A01281B390BC9019F932F939A010E9485
:100E5000D70E9695879596958795969587959F93A6
:100E60008F93FF92EF920E94700F0F900F900F9050
:100E70000F900F900F9057CF8091BB0180FD07C05E
:100E80009F928F920E94700F0F900F904CCF7F9285
:100E90006F920E94700F0F900F9045CF80916F005E
:100EA0008F9380916E008F93BF92AF920E94700FCC
:100EB0000F900F900F900F9036CF35E0351508F456
:100EC0004CC031CF4091C5015091C60121E062E094
:100ED0008EE10E94D40341C02AB53BB544E6429F4F
:100EE000C001439F900D112420E0492F50E062E0A3
:100EF0008EE10E94D40331C04091C3015091C401DE
:100F000021E062E08EE10E94D40327C062E080E02D
:100F10000E943F038091BB0180FD09C08AE091E0FF
:100F20009F938F930E94700F0F900F9016C082E1D5
:100F300091E09F938F930E94700F0F900F900DC0C0
:100F400040916E0050916F0020E062E08EE10E94BF
:100F5000D40380916E000E948C0368960FB6F894BB
:100F6000DEBF0FBECDBFDF91CF911F910F91FF90DC
:100F7000EF90DF90CF90BF90AF909F908F907F9039
:100F80006F905F904F903F902F90089582E087BBC5
:100F900094E093BF89BF88E08CBF81E88FBD8DE06E
:100FA0008EBD1DBC1CBC0E94660380E80E94600EC2
:100FB0000895CF93DF93CDB7DEB768970FB6F89457
:100FC000DEBF0FBECDBF80E690E09093CC01809352
:100FD000CB011A8A198A1C8A1B8A1D8A1092C201A7
:100FE0000E94C60783E090E00E941F129093C60102
:100FF0008093C5010196D1F462E771E083E090E04F
:101000000E94491260E882E090E00E943C1268E091
:1010100081E090E00E943C1260E080E090E00E945D
:101020003C1260E482E790E00E943C1283E090E092
:101030000E941F129093C6018093C50181E090E049
:101040000E94171290E09093C4018093C30182E044
:1010500090E00E94171290E09BBD8ABD80E090E076
:101060000E94171290E09093BC018093BB0182E72D
:1010700090E00E941712282F30E030936F002093E9
:101080006E000E948C039E012B5E3F4F40E862E0A1
:10109000CE0101960E94A00C9D89923009F088E053
:1010A0000E94FA0461E080E00E943F038D891F9254
:1010B0008F938DE591E09F938F930E94700F0F9017
:1010C0000F900F900F9000E620E040E0BE016F5FB0
:1010D0007F4F80E80E94100D8430A9F700E620E0E1
:1010E00040E0BE01675F7F4F80E80E94100D8430B2
:1010F000A9F700E01E8AA12CB12C812C912C0F2E77
:10110000F7E76F2EF1E07F2EF02D0F2EF0E82F2E57
:10111000F1E03F2EF02D0F2EF7EA4F2EF1E05F2E7B
:10112000F02D8091C20183FD69C210E0E12EF12C07
:10113000A701440F551F81E190E08C0F9D1F480FC0
:10114000591FB701660F771F660F771F660F771F4E
:10115000E1E0F0E0EC0FFD1F6E0F7F1F80E80E94C2
:10116000850D8823B9F00E94FA0461E080E00E94B6
:101170003F03FFEFEF1AFF0AFF92EF922DE631E0F7
:101180003F932F930E94700F8D980F900F900F90A8
:101190000F9001C01F5F123048F2C988DA888B892E
:1011A0009C89C80ED91E7601F694E794B501C70153
:1011B0000E945E059091C20180FB92F99093C2015A
:1011C00090FD15C0A090C501B090C601C5010A9759
:1011D0008E159F0530F057019AE0A90EB11C0AE068
:1011E00001C001E08091C20181608093C2018091C1
:1011F000C20182FF5BC08D7F8093C201EE89EE2326
:1012000031F1EF5FEE8BEA3051F52F89388D2E15D5
:101210003F0511F58091C5019091C601A816B90648
:10122000E9F08AB59BB58F3F910538F48091BB01F9
:101230009091BC018170992702C080E090E02AB5AE
:101240003BB5820F931F9BBD8ABD1E8A08C0F88ED6
:10125000EF8A31E03E8B03C01E8A01C01E8AC501A1
:101260004497E816F90608F04FC08AB59BB5863F4B
:10127000910538F48091BB0180FF06C02AE030E080
:1012800005C020E030E002C020E030E08AB59BB528
:10129000820F931F9BBD8ABD8091C2018E7F809378
:1012A000C20186E00E94FA04450131C0E814F90445
:1012B00068F581FD2CC08091C20182608E7F809391
:1012C000C2018091C3019091C4018A0D9B1D8815B4
:1012D0009905E8F42AB53BB5802F90E08217930773
:1012E00038F48091BB0180FF06C0202F30E005C09C
:1012F00020E030E002C020E030E08AB59BB5821BE0
:10130000930B9BBD8ABD03C0450101C047010E94EC
:10131000520360E080E00E943F0349895A899A01A4
:10132000ADECBCEC0E94D70E969587959695879567
:10133000969587959C01220F331F880F991F880F60
:10134000991F880F991F820F931FFA01E81BF90B51
:10135000CF019F93EF939A010E94D70E96958795A0
:1013600096958795969587959F938F937F926F9289
:101370000E94700F61E080E00E943F034B895C890E
:101380009A01ADECBCEC0E94D70E96958795969588
:101390008795969587959C01220F331F880F991F7B
:1013A000880F991F880F991F820F931F9A01281B7E
:1013B000390BC9019F932F939A010E94D70E9695DE
:1013C000879596958795969587959F938F933F924E
:1013D0002F920E94700F62E080E00E943F0397010D
:1013E000ADECBCEC0E94D70E9695879596958795A7
:1013F000969587959C01220F331F880F991F880FA0
:10140000991F880F991F820F931FE81AF90AFF92FC
:10141000EF9296010E94D70E929582958F70892740
:101420009F7089279F938F9389E891E09F938F9373
:101430000E94700F63E080E00E943F034091C5016D
:101440005091C6019A01ADECBCEC0E94D70E969566
:10145000879596958795969587959C01220F331FC2
:10146000880F991F880F991F880F991F820F931F4C
:101470009A01281B390BC9019F932F939A010E944F
:10148000D70E9695879596958795969587959F9370
:101490008F9382E991E09F938F930E94700F64E095
:1014A00080E00E943F034091C3015091C4019A0122
:1014B000ADECBCEC0E94D70E9695879596958795D6
:1014C000969587959C01220F331F880F991F880FCF
:1014D000991F880F991F820F931F9A01281B390BA0
:1014E000C9019F932F939A010E94D70E96958795D5
:1014F00096958795969587959F938F93A4014A1902
:101500005B099A010E94D70E9695879596958795C7
:10151000969587959C01220F331F880F991F880F7E
:10152000991F880F991F820F931FFA01E81BF90B6F
:10153000CF019F93EF939A010E94D70E96958795BE
:1015400096958795969587959F938F932BE931E094
:101550003F932F930E94700F0FB6F894DEBF0FBE1B
:10156000CDBF65E080E00E943F032AB53BB51F92E6
:1015700085E28F9344E6429FC001439F900D112462
:101580001F929F935F924F920E94700F0F900F9047
:101590000F900F900F900F90829B05C08091C20119
:1015A0008F7E8093C2018299BCCD8091C20184FD5F
:1015B000B8CD8D981092C1018091C20188608F7D55
:1015C00080618093C20185E090E09093BE0180939A
:1015D000BD0184E090E0909371008093700020E75B
:1015E00030E03093C8012093C7010E945203E0E726
:1015F000F0E080810E947605789493CDE091C70158
:10160000F091C80180810E946705811104C080911A
:10161000C20185FFF3CFE091C701F091C80180813D
:101620009181992334F48091BD019091BE01918301
:101630008083E091C701F091C801208131818091C0
:10164000BD019091BE018217930710F411821082A0
:10165000E0E7F0E080810E94760563CD1F920F9253
:101660000FB60F9211242F933F934F935F938F9355
:101670009F93EF93FF9312BE80B388718093BF0155
:10168000811104C080E88093C00144C09091C001E2
:10169000992309F43FC08031E1F0883119F0883096
:1016A000C9F528C09038B1F1E091C701F091C801A7
:1016B0002081318199231CF481E090E002C08FEFFA
:1016C0009FEFA901481B590B518340831092C00121
:1016D00021C091509093C0019530E0F4E091C70192
:1016E000F091C8018081918101979183808310924C
:1016F000C00110C09F5F9093C0019B3F58F0E091E4
:10170000C701F091C8018081918101969183808306
:101710001092C001829B05C08091C2018F7E809390
:10172000C201829908C08091C20184FD04C0806119
:1017300080628093C201FF91EF919F918F915F91A1
:101740004F913F912F910F900FBE0F901F901895C2
:1017500098E038E1282F262720FD02C0669503C0B7
:1017600063276695606886959150A1F7862F089546
:10177000EF92FF920F931F93CF93DF937C018C0125
:10178000095F1F4FEC0160E089910E94A80B682F50
:101790000C171D07C9F781E0F7019781961301C067
:1017A00080E0DF91CF911F910F91FF90EF9008950E
:1017B000EF92FF920F931F93CF93DF937C018C01E5
:1017C000085F1F4FEC0160E089910E94A80B682F11
:1017D0000C171D07C9F781E0F7019085961301C02A
:1017E00080E0DF91CF911F910F91FF90EF900895CE
:1017F0001F93CF93DF93D82F162FC8E0D0FF04C0DC
:10180000812F0E946C0E03C0812F0E94810ED695FD
:10181000C150A1F7DF91CF911F9108951F93CF93EE
:10182000DF93182FD8E0C0E0C695812F0E949A0E52
:101830008111C068D150C1F78C2FDF91CF911F91DA
:101840000895FF920F931F93CF93DF938C01F62E91
:1018500085E50E94F80BE801085F1F4F6F2D899105
:101860000E94F80BC017D107C9F7DF91CF911F91E4
:101870000F91FF900895CF92DF92EF92FF920F9316
:101880001F93CF93DF938C01D62EF42E642F80EF1D
:101890000E94F80BC1E0C12CD1E08F2D0E949A0E5E
:1018A000E82E8F2D0E949A0EEE2009F43DC0811182
:1018B00039C0F80190819C2B90831DC0F8012081D4
:1018C0009C2F90959223908316C0DD1205C0F801DD
:1018D00080818C2B80830FC0DD1640F4F80190814D
:1018E0008C2F809589238083CD2E05C0F8019081AF
:1018F0009C2349F004C0F80190819C2329F08F2D8E
:101900000E946C0E04C0CD2E8F2D0E94810EDF5FD1
:10191000CC0F19F40F5F1F4FC1E0D13409F0BDCFD8
:101920008C2D05C08FEF03C0882379F2C7CFDF91DC
:10193000CF911F910F91FF90EF90DF90CF9008957E
:10194000BF92CF92DF92EF92FF920F931F93CF93AC
:10195000DF937C01B42E6901662371F0FC0120E065
:1019600008C011928E179F07E1F72F5FFC016217E5
:1019700019F0CF010896F5CFDE2DCF2DEE2DFF2DDE
:1019800010E000E002C0D82FC92F88E0AD2FBC2F97
:1019900001900D928A95E1F78B2D0E94B50E811171
:1019A0000AC08FEA91E09F938F930E94700F0F906F
:1019B0000F908FEF2BC04B2D602F8D2F9C2F0E94EF
:1019C0003B0C082F1F5FC70128E0129F800D911D5F
:1019D0001124ED2FFC2F0111D6CF1123B1F0D0E04F
:1019E000C0E005E0C7010E94B80B811105C0F601F7
:1019F00090819F5F908301C0D02FCF5FF8E0EF0E02
:101A0000F11C1C13EFCF8D2F01C080E0DF91CF912F
:101A10001F910F91FF90EF90DF90CF90BF900895AE
:101A2000AF92BF92CF92DF92EF92FF920F931F93EC
:101A3000CF93DF93CDB7DEB729970FB6F894DEBF0B
:101A40000FBECDBF182F7B01B42EA22E0E94B50E63
:101A5000612FC7010E94210C612F8EE40E94F80BB8
:101A6000612F8B2D0E94F80B612F8A2D0E94F80B9D
:101A7000612F802F0E94F80B812F0E94B50E612FDD
:101A8000C7010E94210C612F8EEB0E94F80BCE0142
:101A900001967C016E019AE0C90ED11C812F0E9433
:101AA0000E0CF70181937F01EC15FD05B9F7CE010E
:101AB00001960E94D80B811110C08B81B8120FC003
:101AC0008C81A8120EC02D81207630E0802F90E00E
:101AD0002817390741F484E007C081E005C083E09E
:101AE00003C083E001C083E029960FB6F894DEBFFF
:101AF0000FBECDBFDF91CF911F910F91FF90EF905F
:101B0000DF90CF90BF90AF9008952F923F924F9269
:101B10005F926F927F928F929F92AF92BF92CF927D
:101B2000DF92EF92FF920F931F93CF93DF93CDB786
:101B3000DEB72A970FB6F894DEBF0FBECDBFF82EE2
:101B40008B012A010E94B50E6F2DC8010E94210C45
:101B50006F2D84E40E94F80B8F2D0E949A0E88232B
:101B6000D9F38F2D0E94B50E6F2DC8010E94210C54
:101B70006F2D8EEB0E94F80B8E010F5F1F4F6E01D1
:101B80008AE0C80ED11C8F2D0E940E0CF8018193A3
:101B90008F01CE16DF06B9F7CE0101960E94D80B51
:101BA000782E811171C08A80912C982C882489818B
:101BB000882AE82DEF702E2F30E040E050E060E002
:101BC00070E080E090E002E00E94450FA22EB32E6C
:101BD000C42ED52EE62EF72EF82F192F05E00E94E1
:101BE000450F0F2F0E94670FAE2EB12CC12CD12CA8
:101BF000E12CF12C00E010E00E945E0F222E332E2B
:101C0000642E5A87B62FA72FF82FE92F02E00E94E3
:101C1000450FA22EB32EC42ED52EE62EF72E082F5A
:101C2000192F222D332D462D5A856B2F7A2F8F2F6A
:101C30009E2F0E945E0F0F2EF8EEAF2EF02D0F2E6E
:101C4000F3E0BF2EF02DC12CD12CE12CF12C00E0C3
:101C500010E00E94E80E9694879496948794969448
:101C6000879496948794C401880F991F880C991CB7
:101C7000880C991C880C991C880E991E820E911C48
:101C8000F2019182808202C077247394872D2A9674
:101C90000FB6F894DEBF0FBECDBFDF91CF911F917D
:101CA0000F91FF90EF90DF90CF90BF90AF909F90FB
:101CB0008F907F906F905F904F903F902F900895FE
:101CC00091B38095982391BB92B3892382BB8DEE0B
:101CD00090E00197F1F708952FB7F89491B3982BFE
:101CE00091BB92B38095982392BB91B3982391BBFB
:101CF00092B3892382BB86E28A95F1F700002FBF59
:101D000008952FB7F89491B3982B91BB92B3809517
:101D1000982392BB93E29A95F1F700C091B3982370
:101D200091BB92B3892382BB82E08A95F1F70000D0
:101D30002FBF08953FB7F89491B3982B91BB22B36E
:101D4000982F9095292322BB21B3292321BB22B3AD
:101D5000922392BB00C000C0000090B320E22A95FD
:101D6000F1F700003FBF892308953FB7F89491B37E
:101D7000982B91BB22B3982F9095292322BBEDEE8F
:101D8000F0E03197F1F721B3292321BB22B392234D
:101D900092BBFAE2FA95F1F7000090B3E9ECF0E0BB
:101DA0003197F1F700C03FBF909589230895A29F16
:101DB000B001B39FC001A39F700D811D1124911D1F
:101DC000B29F700D811D1124911D0895689401C06A
:101DD000E8948F929F92CF93DF930E94F40EDF914D
:101DE000CF919F908F90089588249924F401E40165
:101DF000B0E49F93AA279A158B049C04ED05FE0579
:101E0000CF05D007A10798F4AD2FDC2FCF2FFE2FE1
:101E1000E92D982C892E982F872F762F652F542FF8
:101E2000432F322F2227B85031F7BF9127C01B2EE6
:101E3000BF91BB27220F331F441F551F661F771FFB
:101E4000881F991F881C991CEE1FFF1FCC1FDD1FC8
:101E5000AA1FBB1F8A149B04EC05FD05CE05DF05F8
:101E6000A007B10748F08A189B08EC09FD09CE09C4
:101E7000DF09A00BB10B21601A94E1F62EF4940156
:101E8000AF01BE01CD01000C08950F93083090F012
:101E9000982F872F762F652F542F432F322F2227ED
:101EA0000850F4CF220F331F441F551F661F771FA2
:101EB000881F991F0A95B2F70F9108952A0D3B1DAF
:101EC0004C1D5D1D6E1D7F1D801F911F08952A19D9
:101ED0003B094C095D096E097F09800B910B089540
:101EE000A0E0B0E0E6E7FFE00C946E12AE014B5FBD
:101EF0005F4FFA0161917191AF018091CB01909197
:101F0000CC010E94860FE2E00C948A12ABE0B0E0B4
:101F1000ECE8FFE00C945E126C017B018A01FC018D
:101F200017821682838181FFCCC1CE0101963C01CC
:101F3000F6019381F70193FD859193FF81917F01D4
:101F4000882309F4BAC1853239F493FD859193FF52
:101F500081917F01853229F4B60190E00E947D11C4
:101F6000E7CF912C212C312CFFE1F315D8F08B32E7
:101F700079F038F4803279F08332A1F4232D206196
:101F80001DC08D3261F0803369F4232D216016C0AD
:101F9000832D8260382EE32DE4603E2E2AC0F32D7F
:101FA000F8601DC037FC2DC020ED280F2A3040F00E
:101FB0008E32B9F436FC81C1232D2064322E19C033
:101FC00036FE06C08AE0989E200D1124922E11C084
:101FD000EAE02E9E200D1124222EF32DF0623F2EDA
:101FE00008C08C3621F4832D8068382E02C08836D4
:101FF00041F4F70193FD859193FF81917F01811158
:10200000B3CF982F9F7D9554933028F40C5F1F4FCA
:102010009FE399830DC0833631F0833771F08335A8
:1020200009F059C021C0F801808189830E5F1F4FDC
:1020300088248394912C530113C02801F2E04F0EA1
:10204000511CF801A080B18036FE03C0692D70E0FC
:1020500002C06FEF7FEFC5010E9472114C01820137
:10206000F32DFF773F2E16C0280122E0420E511CAF
:10207000F801A080B18036FE03C0692D70E002C077
:102080006FEF7FEFC5010E9467114C01F32DF068DF
:102090003F2E820133FC1BC0822D90E088169906EA
:1020A000B0F4B60180E290E00E947D112A94F4CF52
:1020B000F50137FC859137FE81915F01B60190E013
:1020C0000E947D1121102A9421E0821A9108811426
:1020D000910471F7E8C0843611F0893641F5F801B2
:1020E00037FE07C060817181828193810C5F1F4F31
:1020F00008C060817181072E000C880B990B0E5F60
:102100001F4FF32DFF763F2E97FF09C090958095C6
:10211000709561957F4F8F4F9F4FF0683F2E2AE05B
:1021200030E0A3010E94B911882E861845C085377A
:1021300031F4232D2F7EB22E2AE030E025C0932DDE
:10214000997FB92E8F36C1F018F4883579F0B5C073
:10215000803719F0883721F0B0C0E92FE061BE2E3A
:10216000B4FE0DC0FB2DF460BF2E09C034FE0AC0C2
:10217000292F2660B22E06C028E030E005C020E1FD
:1021800030E002C020E132E0F801B7FE07C0608114
:102190007181828193810C5F1F4F06C060817181C4
:1021A00080E090E00E5F1F4FA3010E94B911882EBE
:1021B0008618FB2DFF773F2E36FE0DC0232D2E7F78
:1021C000A22E891458F434FE0BC032FC09C0832DB2
:1021D0008E7EA82E05C0B82CA32C03C0B82C01C03D
:1021E000B92CA4FE0FC0FE01E80DF11D80818033E3
:1021F00021F49A2D997EA92E09C0A2FE06C0B3949F
:10220000B39404C08A2D867809F0B394A3FC11C05E
:10221000A0FE06C0B21488F4280C922C9B180EC0A5
:10222000B21460F4B60180E290E00E947D11B39494
:10223000F7CFB21418F42B1802C0982C212CA4FE4E
:1022400010C0B60180E390E00E947D11A2FE17C08D
:10225000A1FC03C088E790E002C088E590E0B601E9
:102260000CC08A2D867859F0A1FE02C08BE201C015
:1022700080E2A7FC8DE2B60190E00E947D118914F6
:1022800038F4B60180E390E00E947D119A94F7CF74
:102290008A94F301E80DF11D8081B60190E00E945F
:1022A0007D118110F5CF222009F442CEB60180E2E3
:1022B00090E00E947D112A94F6CFF60186819781E5
:1022C00002C08FEF9FEF2B96E2E10C947A12FC0193
:1022D0000590615070400110D8F7809590958E0F51
:1022E0009F1F0895FC016150704001900110D8F7C4
:1022F000809590958E0F9F1F08950F931F93CF93F6
:10230000DF93FB01238121FD03C08FEF9FEF2CC0E2
:1023100022FF16C046815781248135814217530719
:1023200044F4A081B1819D012F5F3F4F3183208311
:102330008C93268137812F5F3F4F3783268314C0CC
:102340008B01EC01FB010084F185E02D0995892BBF
:10235000E1F6D80116968D919C91179701961796E4
:102360009C938E931697CE01DF91CF911F910F9181
:102370000895FA01AA27283051F1203181F1E8941B
:102380006F936E7F6E5F7F4F8F4F9F4FAF4FB1E068
:102390003ED0B4E03CD0670F781F891F9A1FA11D63
:1023A000680F791F8A1F911DA11D6A0F711D811D64
:1023B000911DA11D20D009F468943F912AE0269F29
:1023C00011243019305D3193DEF6CF010895462F88
:1023D0004770405D4193B3E00FD0C9F7F6CF462F69
:1023E0004F70405D4A3318F0495D31FD40524193D2
:1023F00002D0A9F7EACFB4E0A6959795879577958F
:102400006795BA95C9F700976105710508959B0115
:10241000AC010A2E06945795479537952795BA959E
:10242000C9F7620F731F841F951FA01D0895E199BE
:10243000FECF9FBB8EBBE09A99278DB30895A8E18C
:10244000B0E042E050E00C945012262FE199FECF0C
:102450009FBB8EBBE09A01970DB2021631F02DBBE7
:102460000FB6F894E29AE19A0FBE08950196272FCD
:102470000E9426120C942512262FE199FECF9FBBB5
:102480008EBB2DBB0FB6F894E29AE19A0FBE01966F
:1024900008950E943C12272F0C943D12DC01CB01C1
:1024A000FC01E199FECF06C0FFBBEEBBE09A31967E
:1024B0000DB20D9241505040B8F708952F923F92BF
:1024C0004F925F926F927F928F929F92AF92BF9244
:1024D000CF92DF92EF92FF920F931F93CF93DF93F0
:1024E000CDB7DEB7CA1BDB0B0FB6F894DEBF0FBE4D
:1024F000CDBF09942A88398848885F846E847D849A
:102500008C849B84AA84B984C884DF80EE80FD809B
:102510000C811B81AA81B981CE0FD11D0FB6F89411
:0E252000DEBF0FBECDBFED010895F894FFCFD2
:10252E000000000200000000EB04000000003C0070
:10253E000100401A0123012B0133013B01430149E4
:10254E00014C015101550159014301C2D1C520CEA3
:10255E00CA00CED8C8C1CAC020D7D2C5CDC8DF20C8
:10256E0000C4E0F2F7E8EAEEE220ECE0EBEE00CE9B
:10257E00F2F0E8F620F2E5ECEF2DF0E000CED820F8
:10258E00CFCEC8D1CAC02043524300CDC5D220C43D
:10259E00C0D2D7C8CAC000D2E5ECEFE5F0E0F2F346
:1025AE00F0E0202020EFE0E4E0E5F200D2E5ECEFF1
:1025BE00E5F0E0F2F3F0E0202020F1F2E0E1E8EBCC
:1025CE00FCEDE0FF00D0F3F7ED00D0F3F7EDEEE910
:1025DE002000C0E2F2EEECE0F200CFF0E5E4E5EB35
:1025EE00207400CCEEF92DF1F2FC00C2FBE1E5E324
:1025FE00207400D0F3F72FC0E2F200CAEEEDF2F035
:10260E00E0F100C2FBF5EEE400CF7400CCEEF9FC75
:10261E0000C2207400D02FC000CAF1F200CA2DE211
:10262E00EE20E4E0F22DEAEEE220256400C4E0F2B2
:10263E00F7E8EA2025640025642E25642031E400A5
:10264E0025642E25642032E40025642E256420D1D5
:10265E00F00025642E256420CFF00025642E25641D
:10266E002025642E256400CC3A2025642563006E57
:0A267E006F206461746368696B00EB
:00000001FF
