S0150000696E6B75625F61746D656761382E73726563F0
S11300000C940E030C942B030C942B030C942B03D1
S11300100C942B030C942B030C942B030C942B03A4
S11300200C942B030C942B030C942B030C942B0394
S11300300C942B030C942B030C942B030C942B0384
S11300400C942B030C942B030C942B030C94450A53
S11300500C942B03FCFE070303030307FEFC3F7F02
S1130060E0C0C0C0C0E07F3F30180C06FFFF0000B6
S11300700000C0C0C0C0FFFFC0C0C0C0181C0E0735
S1130080030383C7FE7CE0F0F8DCCEC7C3C1C0C065
S1130090030383C3E3F3BB9F0F073070E1C1C1C106
S11300A0C1E37F3E0080C0F03C0F8381000006075F
S11300B007060606FFFF06067EFFC3C3C3C3C3C30A
S11300C0830360E0C0C0C0C0C0E1FF7FC0E0F0B8FF
S11300D09C8E878301007FFFE3C1C1C1C1E3FF7E22
S11300E0030303030303C3F33F1F000000F0FC1FDB
S11300F0070100001C3EE7C3C3C3C3E73E1C3E7FA9
S1130100E3C1C1C1C1E37F3E7CFEC783838383C750
S1130110FFFE000081C1E171391D0F0700E0E0E03E
S11301200000005F00000007000700147F147F1424
S1130130242A7F2A12231308646236495522500068
S113014005030000001C2241000041221C00140889
S11301503E081408083E080800503000000808084B
S1130160080800606000002010080402000000007D
S11301700000005F00000007000700147F147F14D4
S1130180242A7F2A12231308646236495522500018
S113019005030000001C2241000041221C00140839
S11301A03E081408083E08080050300000080808FB
S11301B0080800606000002010080402000000002D
S11301C00000005F00000007000700147F147F1484
S11301D0242A7F2A122313086462364955225000C8
S11301E005030000001C2241000041221C001408E9
S11301F03E081408083E08080050300000080808AB
S11302000808006060000020100804023E514945BF
S11302103E44427F404042615149462141454B3171
S11302201814127F1027454545393C4A4949300185
S1130230710905033649494936064949291E0036DC
S1130240360000005636000008142241001414142D
S1130250141400412214080201510906324979415B
S11302603E7E1111117E7F494949363E414141226A
S11302707F4141221C7F494949417F090909013EC7
S11302804149497A7F0808087F00417F41002040A6
S1130290413F017F081422417F404040407F020CCF
S11302A0027F7F0408107F3E4141413E7F090909D6
S11302B0063E4151215E7F09192946464949493183
S11302C001017F01013F4040403F1F2040201F3F6C
S11302D04038403F631408146307087008076151ED
S11302E0494543007F414100020408102000414178
S11302F07F00040201020440404040400001020427
S11303000020545454787F484444383844444420AA
S1130310384444487F3854545418087E0901020C68
S11303205252523E7F0804047800447D400020402D
S1130330443D007F1028440000417F40007C0418A5
S113034004787C0804047838444444387C14141435
S113035008081414187C7C080404084854545420D5
S1130360043F4440203C4040207C1C2040201C3C56
S11303704030403C44281028440C5050503C4464C5
S1130380544C44000836410000007F000000413610
S1130390080010080810087846414678000000005C
S11303A00000005F00000007000700147F147F14A2
S11303B0242A7F2A122313086462364955225000E6
S11303C005030000001C2241000041221C00140807
S11303D03E081408083E08080050300000080808C9
S11303E008080060600000201008040200000000FB
S11303F00000005F00000007000700147F147F1452
S1130400242A7F2A12231308646236495522500095
S113041005030000001C2241000041221C001408B6
S11304203E081408083E0808005030000008080878
S113043008080060600000201008040200000000AA
S11304400000005F00000007000700147F147F1401
S1130450242A7F2A12231308646236495522500045
S113046005030000001C2241000041221C00140866
S11304703E081408083E0808005030000008080828
S11304800808006060000020100804023E5149453D
S11304903E00427F400042615149462141454B3173
S11304A01814127F1027454545393C4A4949300103
S11304B0710905033649494936064949291E00365A
S11304C036000000563600000814224100141414AB
S11304D01414004122140802015109067E1111115D
S11304E07E7F494949317F494949367F01010103EA
S11304F0702927217F7F4949494177087F0877413F
S1130500414149767F1008047F7F1009047F7F08EA
S113051014224120413F017F7F020C027F7F0808A3
S1130520087F3E4141413E7F0101017F7F09090966
S1130530063E4141412201017F010147281008077D
S11305401E217F211E63140814633F2020205F07AF
S11305500808087F7F407F407F3F203F205F017F66
S11305604848307F4830007F007F4848304141414F
S1130570493E7F083E413E462919097F2054545480
S1130580783C4A4A49317C545428007C0404040CC5
S1130590722A26227E38545454186C107C106C44F1
S11305A0445454387C2010087C7C2112097C7C1033
S11305B028440020443C047C7C0810087C7C1010F7
S11305C0107C38444444387C0404047C7C141414A3
S11305D008384444442004047C04044428100804D7
S11305E008147E140844281028443C40407C400CE5
S11305F01010107C7C407C407C3C203C207C047CA3
S11306005050207C5020007C007C505020284444D2
S113061054387C10384438485434147C11241FBE98
S1130620CFE5D4E0DEBFCDBF11E0A0E6B0E0EEE25E
S1130630F3E202C005900D92A83AB107D9F721E080
S1130640A8EAB1E001C01D92AD3BB207E1F70E94F8
S11306505E070C9495110C94000098E0DC988823B4
S113066014F4DB9A01C0DB98DC9A880F9150B1F73F
S11306700895DA98D9980E942D03D99A0895CF93B2
S1130680C82F862F877080640E9439038C2F80685E
S11306900E943903CF910895DA9AD9980E942D03C4
S11306A0D99A0895CF93DF9360E080E00E943F03DE
S11306B0CEE8D3E080E00E944C032197D9F760E0B4
S11306C080E00E943F03DF91CF9108958AB38F6148
S11306D08ABBD89AD99AD8988FE493EC0197F1F70A
S11306E000C00000D89A81E20E94390383E10E948D
S11306F0390384E00E94390388EB0E94390380E2C5
S11307000E9439038CE00E9439030E94520360E086
S113071080E00E943F030895EF92FF921F93CF93CE
S1130720DF93162F90E0EC01CC0FDD1FCC0FDD1F03
S11307308C0F9D1FEC01C45EDE4F7E0185E0E80E48
S1130740F11C113021F4FE018491809502C0FE0158
S113075084910E944C032196CE15DF0591F781E028
S1130760113009F080E081950E944C03DF91CF9114
S11307701F91FF90EF9008957F928F929F92AF9276
S1130780BF92CF92DF92EF92FF920F931F93CF937A
S1130790DF9300D000D000D0CDB7DEB7982EB62EB0
S11307A06A01822E9A01ADECBCEC0E94EE0D969586
S11307B0879596958795969587952DEC829F212D03
S11307C01124269526952695422F440F342F330F56
S11307D0330F340F482F431B34E1439FA0011124EE
S11307E04C5A5F4F5A834983222309F4A8C09DECD5
S11307F0299F912D1124969596959695990F392FA9
S1130800330F330F930F291B44E1249F90011124CC
S11308102C5A3F4F3C832B8399E2899F812D1124CD
S113082082958F7009F491C0A4E18A9FC0011124BC
S11308308C5A9F4F9E838D836894AA24A1F887C005
S11308401F5F0F5FD701ED91FC91E10FF11D8491C2
S11308500E944C03193029F4672D892D0E943F030F
S1130860EFCF043168F380E00E944C031BE0190DC4
S11308706B2D812F0E943F03AA94AA2054F4B1E067
S11308808B121DC013C00F2EF9E07F2EF02D7B0CB0
S113089001C0912E01E010E0EA2CEE0CFF0821E0EB
S11308A030E02C0F3D1FE20EF31ECCCF69E06B0D40
S11308B0812F0E943F0360E080E00E948C0331E1BD
S11308C0930E6B2D892D0E943F039601ADECBCEC79
S11308D00E94EE0D969587959695879596958795A2
S11308E09C01220F331F880F991F880F991F880FAF
S11308F0991F820F931FC81AD90A84E18C9D700135
S11309008D9DF00C112401E010E049E0B40E02C00A
S11309101F5F0F5FF701E10FF11DEC5AFF4F849148
S11309200E944C03193029F46B2D892D0E943F033A
S1130930EFCF043168F380E00E944C030DC06B2DAF
S1130940892D0E943F03A12C9ECFAA24A3946B2D32
S1130950892D0E943F0397CF26960FB6F894DEBFE9
S11309600FBECDBFDF91CF911F910F91FF90EF90FC
S1130970DF90CF90BF90AF909F908F907F9008951D
S11309801F93CF93DF93EC018881882341F0162FC6
S11309902196612F0E948C0389918111FACFDF91F6
S11309A0CF911F910895CF93C82F8A3019F48DE009
S11309B00E94D30460E08C2F0E948C0380E090E0BE
S11309C0CF910895CF93C82F0E945203C530C9F127
S11309D030F4C130B9F068F0C23051F155C0C730BD
S11309E009F44AC008F43FC0C830C9F0CF3F91F1C0
S11309F04BC08AE790E09F938F930E94870E0F90DD
S1130A000F9042C061E080E00E943F0381E890E0E3
S1130A109F938F930E94870E0F900F9035C080E9AB
S1130A2090E09F938F930E94870E0F900F902CC09D
S1130A308EE990E09F938F930E94870E0F900F9002
S1130A4023C08CEA90E09F938F930E94870E0F90AF
S1130A500F901AC08AEB90E09F938F930E94870EA9
S1130A600F900F9011C086EC90E09F938F930E949B
S1130A70870E0F900F9008C08BED90E09F938F939B
S1130A800E94870E0F900F90CF91089568177907F1
S1130A9018F48D9880E008958D9A81E008959091DE
S1130AA0A801981749F0981710F091E001C09FEF42
S1130AB08093A801892F089580E008954F925F9252
S1130AC06F927F928F929F92AF92BF92CF92DF925A
S1130AD0EF92FF920F931F93CF93DF93CDB7DEB7BF
S1130AE02A970FB6F894DEBF0FBECDBF082F8AE059
S1130AF0E0E7F0E0DE01119601900D928A95E1F7AE
S1130B008091B00185FF79C0043008F06BC00E9469
S1130B10520360E080E00E943F03E02FF0E0EE0F1C
S1130B20FF1F21E030E02C0F3D1FE20FF31F8181F6
S1130B308F9380818F930E94870E0F900F908091E6
S1130B40AF01811140C081E0800F8093AF0101307B
S1130B5099F028F00230E9F0033041F149C086EF02
S1130B6094E09093AC018093AB0183EB91E090937C
S1130B70B6018093B5013CC08EEF90E09093AC0138
S1130B808093AB018AE490E09093B6018093B50121
S1130B902FC084E690E09093AC018093AB0181EB8D
S1130BA091E09093B6018093B50122C081E090E07A
S1130BB09093AC018093AB0189EA91E09093B601E4
S1130BC08093B50115C084E090E09093AC018093CC
S1130BD0AB018EE690E09093B6018093B50110923C
S1130BE0AF0106C0F8948091B001877F8093B00173
S1130BF08091B0018F7D8093B0011091AF011230CC
S1130C0009F4F8C030F4112359F0113009F4E8C0A4
S1130C1024C1133009F4FEC0143009F405C11DC108
S1130C200E94520377247394662463940F2EF5E292
S1130C304F2EF02D0F2EF4E65F2EF02D0F2EF4EF35
S1130C40CF2EF0E0DF2EF02D0F2EFFE6EF2EF1E099
S1130C50FF2EF02D0F2EFEEF8F2EF0E09F2EF02DA5
S1130C600F2EF9EFAF2EF0E0BF2EF02D02C01F5F64
S1130C707394612F80E00E943F03662D011360E0AE
S1130C80E12FF0E0EE0FFF1F81E090E08C0F9D1F3D
S1130C90E80FF91F808191810E94C0041130F1F1A5
S1130CA038F0123009F450C0133009F483C094C0F2
S1130CB04091B3015091B4019A01ADECBCEC0E9497
S1130CC0EE0D9695879596958795969587959C01B3
S1130CD0220F331F880F991F880F991F880F991FA0
S1130CE0820F931F9A01281B390BC9019F932F93DD
S1130CF09A010E94EE0D96958795969587959695FF
S1130D0087959F938F93FF92EF920E94870E0F9087
S1130D100F900F900F900F900F90A9CF2AB53BB56D
S1130D201F924F92529EC001539E900D11241F9208
S1130D309F93DF92CF920E94870E0F900F900F9097
S1130D400F900F900F9093CF4091B1015091B20149
S1130D509A01ADECBCEC0E94EE0D969587959695A4
S1130D608795969587959C01220F331F880F991FAD
S1130D70880F991F880F991F820F931F9A01281BB0
S1130D80390BC9019F932F939A010E94EE0D9695FA
S1130D90879596958795969587959F938F93FF92C0
S1130DA0EF920E94870E0F900F900F900F900F906C
S1130DB00F905DCF8091A90180FD07C0BF92AF92D3
S1130DC00E94870E0F900F9052CF9F928F920E9495
S1130DD0870E0F900F904BCF34E03715F0F147CFCB
S1130DE04091B3015091B40121E062E08EE10E9490
S1130DF0BC0333C02AB53BB544E6429FC001439FC0
S1130E00900D112420E0492F50E062E08EE10E9411
S1130E10BC0323C04091B1015091B20121E062E0D2
S1130E208EE10E94BC0319C062E08EE10E943F0380
S1130E308091A90180FD09C083E091E09F938F9385
S1130E400E94870E0F900F9008C08BE091E09F9353
S1130E508F930E94870E0F900F902A960FB6F894E6
S1130E60DEBF0FBECDBFDF91CF911F910F91FF90D9
S1130E70EF90DF90CF90BF90AF909F908F907F9036
S1130E806F905F904F90089582E087BB94E093BF8A
S1130E9089BF88E08CBF81E88FBD8DE08EBD1DBC0D
S1130EA01CBC81E090E00E942E1190E09BBD8ABDA5
S1130EB00E94660380E80E94770D0895CF93DF9324
S1130EC0CDB7DEB768970FB6F894DEBF0FBECDBFBF
S1130ED080E690E09093BA018093B9010E944407A0
S1130EE01A8A198A1C8A1B8A1D8A1092B00182E010
S1130EF090E00E9436119093B4018093B30101965F
S1130F0009F562E771E082E090E00E94491182E015
S1130F1090E00E9436119093B4018093B30160E88D
S1130F2081E090E00E943C1168E080E090E00E9443
S1130F303C1180E090E00E942E1190E09093B20169
S1130F408093B1019E012B5E3F4F40E862E0CE01E9
S1130F5001960E94B70B9D89923009F088E00E94A7
S1130F60E20461E080E00E943F038D891F928F9329
S1130F7086E491E09F938F930E94870E0F900F90C9
S1130F800F900F9000E620E040E0BE016F5F7F4FBE
S1130F9080E80E94270C8430A9F700E620E040E0B6
S1130FA0BE01675F7F4F80E80E94270C8430A9F759
S1130FB000E01E8AC12CD12C812C912C0F2EFFE62F
S1130FC06F2EF1E07F2EF02D0F2EF0E62F2EF1E0A4
S1130FD03F2EF02D0F2EFEE84F2EF1E05F2EF02D68
S1130FE08091B00183FD21C210E0E12EF12CA70114
S1130FF0440F551F81E190E08C0F9D1F480F591F2E
S1131000B701660F771F660F771F660F771FE1E042
S1131010F0E0EC0FFD1F6E0F7F1F80E80E949C0C18
S11310208823B9F00E94E20461E080E00E943F035B
S1131030FFEFEF1AFF0AFF92EF9226E531E03F93AC
S11310402F930E94870E8D980F900F900F900F9002
S113105001C01F5F123048F2A988BA888B899C8925
S1131060A80EB91E7501F694E794B601C7010E9453
S113107046059091B00180FB92F99093B00190FDE8
S113108015C0C090B301D090B401C6010A978E1563
S11310909F0530F067019AE0C90ED11C0AE001C037
S11310A001E08091B00181608093B0018091B00132
S11310B082FF5BC08D7F8093B001EE89EE2331F116
S11310C0EF5FEE8BEA3051F52F89388D2E153F05F1
S11310D011F58091B3019091B401C816D906E9F0D5
S11310E08AB59BB58F3F910538F48091A901909101
S11310F0AA018170992702C080E090E02AB53BB52F
S1131100820F931F9BBD8ABD1E8A08C0F88EEF8A8A
S113111031E03E8B03C01E8A01C01E8AC60144977B
S1131120E816F90608F04FC08AB59BB5863F9105CD
S113113038F48091A90180FF06C02AE030E005C0A0
S113114020E030E002C020E030E08AB59BB5820F99
S1131150931F9BBD8ABD8091B0018E7F8093B001A7
S113116086E00E94E204460131C0E814F90468F5FF
S113117081FD2CC08091B00182608E7F8093B0018C
S11311808091B1019091B2018C0D9D1D8815990536
S1131190E8F42AB53BB5802F90E08217930738F422
S11311A08091A90180FF06C0202F30E005C020E017
S11311B030E002C020E030E08AB59BB5821B930B7F
S11311C09BBD8ABD03C0460101C047010E94520372
S11311D049895A899A01ADECBCEC0E94EE0D9695B2
S11311E0879596958795969587959C01220F331F31
S11311F0880F991F880F991F880F991F820F931FBB
S1131200FA01E81BF90BCF019F93EF939A010E9417
S1131210EE0D9695879596958795969587959F93C8
S11312208F937F926F920E94870E60E08EE10E94FE
S11312303F034B895C899A01ADECBCEC0E94EE0D36
S11312409695879596958795969587959C01220FF7
S1131250331F880F991F880F991F880F991F820FBA
S1131260931F9A01281B390BC9019F932F939A014D
S11312700E94EE0D969587959695879596958795F8
S11312809F938F937F926F920E94870E61E080E01C
S11312900E943F03C60144979F938F93DF92CF929E
S11312A03F922F920E94870E62E080E00E943F03EB
S11312B04091B3015091B4019A01ADECBCEC0E9491
S11312C0EE0D9695879596958795969587959C01AD
S11312D0220F331F880F991F880F991F880F991F9A
S11312E0820F931FFA01E81BF90BCF019F93EF9331
S11312F09A010E94EE0D96958795969587959695F9
S113130087959F938F932AE631E03F932F930E9412
S1131310870E63E080E00E943F03C4018C199D099D
S11313209F938F939F928F92E5E7F1E0FF93EF9362
S11313300E94870E64E080E00E943F032AB53BB51B
S11313408091B00181701F928F933F932F9381E816
S113135091E09F938F930E94870E0FB6F894DEBF9F
S11313600FBECDBF65E080E00E943F039701ADEC66
S1131370BCEC0E94EE0D969587959695879596956B
S113138087959C01220F331F880F991F880F991F7F
S1131390880F991F820F931FE81AF90AFF92EF92A0
S11313A095010E94EE0D929582958F7089279F700A
S11313B089279F938F935F924F920E94870E0F907D
S11313C00F900F900F900F900F90829B05C080910B
S11313D0B0018F7E8093B001829902CE8091B001DA
S11313E084FDFECD8D981092AF018091B00188608C
S11313F08F7D80618093B00184E090E09093AC0194
S11314008093AB0190936F0080936E008EE690E022
S11314109093B6018093B5010E945203EEE6F0E08A
S113142080810E945E057894DBCDE091B501F09156
S1131430B60180810E944F05811104C08091B001E2
S113144085FFF3CFE091B501F091B60180819181E0
S1131450992334F48091AB019091AC019183808302
S1131460E091B501F091B601208131818091AB0109
S11314709091AC018217930710F411821082EEE66A
S1131480F0E080810E945E05ABCD1F920F920FB6F3
S11314900F9211242F933F934F935F938F939F93B6
S11314A0EF93FF9312BE80B388718093AD018111D5
S11314B004C080E88093AE0144C09091AE019923AA
S11314C009F43FC08031E1F0883119F08830C9F562
S11314D028C09038B1F1E091B501F091B6012081B6
S11314E0318199231CF481E090E002C08FEF9FEFDB
S11314F0A901481B590B518340831092AE0121C0AE
S113150091509093AE019530E0F4E091B501F091E3
S1131510B601808191810197918380831092AE01FD
S113152010C09F5F9093AE019B3F58F0E091B501CE
S1131530F091B6018081918101969183808310920C
S1131540AE01829B05C08091B0018F7E8093B00173
S1131550829908C08091B00184FD04C080618062DA
S11315608093B001FF91EF919F918F915F914F9183
S11315703F912F910F900FBE0F901F90189598E0F8
S113158038E1282F262720FD02C0669503C0632773
S11315906695606886959150A1F7862F0895EF921D
S11315A0FF920F931F93CF93DF937C018C01095F0C
S11315B01F4FEC0160E089910E94BF0A682F0C174D
S11315C01D07C9F781E0F7019781961301C080E0F8
S11315D0DF91CF911F910F91FF90EF900895EF92BB
S11315E0FF920F931F93CF93DF937C018C01085FCD
S11315F01F4FEC0160E089910E94BF0A682F0C170D
S11316001D07C9F781E0F7019085961301C080E0BA
S1131610DF91CF911F910F91FF90EF9008951F9349
S1131620CF93DF93D82F162FC8E0D0FF04C0812FAB
S11316300E94830D03C0812F0E94980DD695C1503E
S1131640A1F7DF91CF911F9108951F93CF93DF935B
S1131650182FD8E0C0E0C695812F0E94B10D8111EA
S1131660C068D150C1F78C2FDF91CF911F9108959D
S1131670FF920F931F93CF93DF938C01F62E85E592
S11316800E940F0BE801085F1F4F6F2D89910E9484
S11316900F0BC017D107C9F7DF91CF911F910F919D
S11316A0FF900895CF92DF92EF92FF920F931F93D2
S11316B0CF93DF938C01D62EF42E642F80EF0E94FB
S11316C00F0BC1E0C12CD1E08F2D0E94B10DE82E8B
S11316D08F2D0E94B10DEE2009F43DC0811139C057
S11316E0F80190819C2B90831DC0F80120819C2FD0
S11316F090959223908316C0DD1205C0F801808175
S11317008C2B80830FC0DD1640F4F80190818C2F60
S1131710809589238083CD2E05C0F80190819C2378
S113172049F004C0F80190819C2329F08F2D0E9478
S1131730830D04C0CD2E8F2D0E94980DDF5FCC0F3A
S113174019F40F5F1F4FC1E0D13409F0BDCF8C2DC8
S113175005C08FEF03C0882379F2C7CFDF91CF9103
S11317601F910F91FF90EF90DF90CF900895BF925B
S1131770CF92DF92EF92FF920F931F93CF93DF9359
S11317807C01B42E6901662371F0FC0120E008C0DD
S113179011928E179F07E1F72F5FFC01621719F072
S11317A0CF010896F5CFDE2DCF2DEE2DFF2D10E0C5
S11317B000E002C0D82FC92F88E0AD2FBC2F0190C4
S11317C00D928A95E1F78B2D0E94CC0D81110AC0F0
S11317D08CE991E09F938F930E94870E0F900F9056
S11317E08FEF2BC04B2D602F8D2F9C2F0E94520BFF
S11317F0082F1F5FC70128E0129F800D911D11243F
S1131800ED2FFC2F0111D6CF1123B1F0D0E0C0E0B1
S113181005E0C7010E94CF0A811105C0F60190813D
S11318209F5F908301C0D02FCF5FF8E0EF0EF11CD3
S11318301C13EFCF8D2F01C080E0DF91CF911F915A
S11318400F91FF90EF90DF90CF90BF900895AF92EB
S1131850BF92CF92DF92EF92FF920F931F93CF9399
S1131860DF93CDB7DEB729970FB6F894DEBF0FBE6E
S1131870CDBF182F7B01B42EA22E0E94CC0D612F58
S1131880C7010E94380B612F8EE40E940F0B612F59
S11318908B2D0E940F0B612F8A2D0E940F0B612F3D
S11318A0802F0E940F0B812F0E94CC0D612FC70146
S11318B00E94380B612F8EEB0E940F0BCE01019614
S11318C07C016E019AE0C90ED11C812F0E94250B68
S11318D0F70181937F01EC15FD05B9F7CE0101965F
S11318E00E94EF0A811110C08B81B8120FC08C8145
S11318F0A8120EC02D81207630E0802F90E02817AA
S1131900390741F484E007C081E005C083E003C0E7
S113191083E001C083E029960FB6F894DEBF0FBEC2
S1131920CDBFDF91CF911F910F91FF90EF90DF908A
S1131930CF90BF90AF9008952F923F924F925F92B5
S11319406F927F928F929F92AF92BF92CF92DF92CB
S1131950EF92FF920F931F93CF93DF93CDB7DEB730
S11319602A970FB6F894DEBF0FBECDBFF82E8B01B9
S11319702A010E94CC0D6F2DC8010E94380B6F2DD7
S113198084E40E940F0B8F2D0E94B10D8823D9F39C
S11319908F2D0E94CC0D6F2DC8010E94380B6F2D26
S11319A08EEB0E940F0B8E010F5F1F4F6E018AE0BA
S11319B0C80ED11C8F2D0E94250BF80181938F0135
S11319C0CE16DF06B9F7CE0101960E94EF0A782EF3
S11319D0811171C08A80912C982C88248981882A4D
S11319E0E82DEF702E2F30E040E050E060E070E032
S11319F080E090E002E00E945C0EA22EB32EC42E82
S1131A00D52EE62EF72EF82F192F05E00E945C0E36
S1131A100F2F0E947E0EAE2EB12CC12CD12CE12CA6
S1131A20F12C00E010E00E94750E222E332E642E5D
S1131A305A87B62FA72FF82FE92F02E00E945C0ED9
S1131A40A22EB32EC42ED52EE62EF72E082F192F34
S1131A50222D332D462D5A856B2F7A2F8F2F9E2FB3
S1131A600E94750E0F2EF8EEAF2EF02D0F2EF3E020
S1131A70BF2EF02DC12CD12CE12CF12C00E010E074
S1131A800E94FF0D969487949694879496948794D5
S1131A9096948794C401880F991F880C991C880C0C
S1131AA0991C880C991C880E991E820E911CF201B7
S1131AB09182808202C077247394872D2A960FB670
S1131AC0F894DEBF0FBECDBFDF91CF911F910F9170
S1131AD0FF90EF90DF90CF90BF90AF909F908F904A
S1131AE07F906F905F904F903F902F90089591B3A7
S1131AF08095982391BB92B3892382BB8DEE90E0AD
S1131B000197F1F708952FB7F89491B3982B91BBEF
S1131B1092B38095982392BB91B3982391BB92B3CF
S1131B20892382BB86E28A95F1F700002FBF0895CE
S1131B302FB7F89491B3982B91BB92B380959823C7
S1131B4092BB93E29A95F1F700C091B3982391BBAD
S1131B5092B3892382BB82E08A95F1F700002FBFFC
S1131B6008953FB7F89491B3982B91BB22B3982F63
S1131B709095292322BB21B3292321BB22B392238D
S1131B8092BB00C000C0000090B320E22A95F1F798
S1131B9000003FBF892308953FB7F89491B3982B71
S1131BA091BB22B3982F9095292322BBEDEEF0E050
S1131BB03197F1F721B3292321BB22B3922392BB9E
S1131BC0FAE2FA95F1F7000090B3E9ECF0E031970E
S1131BD0F1F700C03FBF909589230895A29FB001FB
S1131BE0B39FC001A39F700D811D1124911DB29F4D
S1131BF0700D811D1124911D0895689401C0E8940D
S1131C008F929F92CF93DF930E940B0EDF91CF911F
S1131C109F908F90089588249924F401E401B0E4FE
S1131C209F93AA279A158B049C04ED05FE05CF0506
S1131C30D007A10798F4AD2FDC2FCF2FFE2FE92D6D
S1131C40982C892E982F872F762F652F542F432F6A
S1131C50322F2227B85031F7BF9127C01B2EBF91D6
S1131C60BB27220F331F441F551F661F771F881F72
S1131C70991F881C991CEE1FFF1FCC1FDD1FAA1F74
S1131C80BB1F8A149B04EC05FD05CE05DF05A007E8
S1131C90B10748F08A189B08EC09FD09CE09DF0951
S1131CA0A00BB10B21601A94E1F62EF49401AF015C
S1131CB0BE01CD01000C08950F93083090F0982FC9
S1131CC0872F762F652F542F432F322F222708502A
S1131CD0F4CF220F331F441F551F661F771F881F21
S1131CE0991F0A95B2F70F9108952A0D3B1D4C1DBB
S1131CF05D1D6E1D7F1D801F911F08952A193B09CC
S1131D004C095D096E097F09800B910B0895A0E0D1
S1131D10B0E0EDE8FEE00C946E11AE014B5F5F4F56
S1131D20FA0161917191AF018091B9019091BA0169
S1131D300E949D0EE2E00C948A11ABE0B0E0E3EA6D
S1131D40FEE00C945E116C017B018A01FC01178298
S1131D501682838181FFCCC1CE0101963C01F6013C
S1131D609381F70193FD859193FF81917F018823EE
S1131D7009F4BAC1853239F493FD859193FF8191B9
S1131D807F01853229F4B60190E00E949410E7CFD8
S1131D90912C212C312CFFE1F315D8F08B3279F002
S1131DA038F4803279F08332A1F4232D20611DC0F0
S1131DB08D3261F0803369F4232D216016C0832DA8
S1131DC08260382EE32DE4603E2E2AC0F32DF860A5
S1131DD01DC037FC2DC020ED280F2A3040F08E3274
S1131DE0B9F436FC81C1232D2064322E19C036FE8D
S1131DF006C08AE0989E200D1124922E11C0EAE0BC
S1131E002E9E200D1124222EF32DF0623F2E08C0A9
S1131E108C3621F4832D8068382E02C0883641F434
S1131E20F70193FD859193FF81917F018111B3CFD8
S1131E30982F9F7D9554933028F40C5F1F4F9FE398
S1131E4099830DC0833631F0833771F0833509F0FF
S1131E5059C021C0F801808189830E5F1F4F8824F7
S1131E608394912C530113C02801F2E04F0E511CAE
S1131E70F801A080B18036FE03C0692D70E002C075
S1131E806FEF7FEFC5010E9489104C018201F32D91
S1131E90FF773F2E16C0280122E0420E511CF801A4
S1131EA0A080B18036FE03C0692D70E002C06FEFE0
S1131EB07FEFC5010E947E104C01F32DF0683F2E88
S1131EC0820133FC1BC0822D90E088169906B0F481
S1131ED0B60180E290E00E9494102A94F4CFF501B8
S1131EE037FC859137FE81915F01B60190E00E9435
S1131EF0941021102A9421E0821A910881149104EB
S1131F0071F7E8C0843611F0893641F5F80137FEDF
S1131F1007C060817181828193810C5F1F4F08C06B
S1131F2060817181072E000C880B990B0E5F1F4F87
S1131F30F32DFF763F2E97FF09C0909580957095FD
S1131F4061957F4F8F4F9F4FF0683F2E2AE030E01E
S1131F50A3010E94D010882E861845C0853731F41D
S1131F60232D2F7EB22E2AE030E025C0932D997FB9
S1131F70B92E8F36C1F018F4883579F0B5C08037A2
S1131F8019F0883721F0B0C0E92FE061BE2EB4FE0D
S1131F900DC0FB2DF460BF2E09C034FE0AC0292FEA
S1131FA02660B22E06C028E030E005C020E130E013
S1131FB002C020E132E0F801B7FE07C06081718100
S1131FC0828193810C5F1F4F06C06081718180E024
S1131FD090E00E5F1F4FA3010E94D010882E861838
S1131FE0FB2DFF773F2E36FE0DC0232D2E7FA22E14
S1131FF0891458F434FE0BC032FC09C0832D8E7E44
S1132000A82E05C0B82CA32C03C0B82C01C0B92C31
S1132010A4FE0FC0FE01E80DF11D8081803321F480
S11320209A2D997EA92E09C0A2FE06C0B394B3943A
S113203004C08A2D867809F0B394A3FC11C0A0FED5
S113204006C0B21488F4280C922C9B180EC0B2144B
S113205060F4B60180E290E00E949410B394F7CF4C
S1132060B21418F42B1802C0982C212CA4FE10C012
S1132070B60180E390E00E949410A2FE17C0A1FC78
S113208003C088E790E002C088E590E0B6010CC088
S11320908A2D867859F0A1FE02C08BE201C080E24D
S11320A0A7FC8DE2B60190E00E949410891438F4E4
S11320B0B60180E390E00E9494109A94F7CF8A943A
S11320C0F301E80DF11D8081B60190E00E949410A7
S11320D08110F5CF222009F442CEB60180E290E0CF
S11320E00E9494102A94F6CFF6018681978102C04B
S11320F08FEF9FEF2B96E2E10C947A11FC0105908F
S1132100615070400110D8F7809590958E0F9F1FF5
S11321100895FC016150704001900110D8F780953A
S113212090958E0F9F1F08950F931F93CF93DF9366
S1132130FB01238121FD03C08FEF9FEF2CC022FF01
S113214016C046815781248135814217530744F4D0
S1132150A081B1819D012F5F3F4F318320838C93F8
S1132160268137812F5F3F4F3783268314C08B012D
S1132170EC01FB010084F185E02D0995892BE1F642
S1132180D80116968D919C911797019617969C935A
S11321908E931697CE01DF91CF911F910F910895E1
S11321A0FA01AA27283051F1203181F1E8946F9384
S11321B06E7F6E5F7F4F8F4F9F4FAF4FB1E03ED02A
S11321C0B4E03CD0670F781F891F9A1FA11D680FC8
S11321D0791F8A1F911DA11D6A0F711D811D911DFB
S11321E0A11D20D009F468943F912AE0269F112470
S11321F03019305D3193DEF6CF010895462F4770D4
S1132200405D4193B3E00FD0C9F7F6CF462F4F702E
S1132210405D4A3318F0495D31FD4052419302D08C
S1132220A9F7EACFB4E0A695979587957795679532
S1132230BA95C9F700976105710508959B01AC0132
S11322400A2E06945795479537952795BA95C9F759
S1132250620F731F841F951FA01D0895E199FECF7F
S11322609FBB8EBBE09A99278DB30895A8E1B0E097
S113227042E050E00C945011262FE199FECF9FBB11
S11322808EBB2DBB0FB6F894E29AE19A0FBE01966D
S113229008950E943C11272F0C943D11DC01CB01C1
S11322A0FC01E199FECF06C0FFBBEEBBE09A31967C
S11322B00DB20D9241505040B8F708952F923F92BD
S11322C04F925F926F927F928F929F92AF92BF9242
S11322D0CF92DF92EF92FF920F931F93CF93DF93EE
S11322E0CDB7DEB7CA1BDB0B0FB6F894DEBF0FBE4B
S11322F0CDBF09942A88398848885F846E847D8498
S11323008C849B84AA84B984C884DF80EE80FD8099
S11323100C811B81AA81B981CE0FD11D0FB6F8940F
S1112320DEBF0FBECDBFED010895F894FFCFD0
S113232E0000000200000000D304000000000100C1
S113233E13011E01290133013E01C2D1C520CECAAB
S113234E00CED8C8C1CAC020D7D2C5CDC8DF2000A0
S113235EC4E0F2F7E8EAEEE220ECE0EBEE00CEF2B7
S113236EF0E8F620F2E5ECEF2DF0E000CED820CF29
S113237ECEC8D1CAC02043524300CDC5D220C4C05A
S113238ED2D7C8CAC000D2E5ECEFE5F0E0F2F3F024
S113239EE0202020EFE0E4E0E5F200D2E5ECEFE50A
S11323AEF0E0F2F3F0E0202020F1F2E0E1E8EBFCC3
S11323BEEDE0FF002564256300D0F3F7ED00C0E2E5
S11323CEF2EE0020D0F3F7EDEEE900C0E2F2EEEC0F
S11323DEE0F20020CFF0E5E4E5EB2074200020CC01
S11323EEEEF9EDEEF1F2FC200020C2FBE1E5E32074
S11323FE74200020D0F3F72FC0E2F2EE200020C2AA
S113240EFBF5EEE42000CA2DE2EE20E4E0F22DEA24
S113241EEEE220256400C4E0F2F7E8EA2025640029
S113242E48202564204C20256400C2E5F0F52025C3
S113243E642E25640052742025642064542025647F
S113244E0050574D20256420466C20256400D1F0A1
S113245EE5E4EDFFFF2025642E2564006E6F2064F5
S10B246E61746368696B0000EE
S9030000FC
