:100000000C9418030C9435030C9435030C943503AD
:100010000C9435030C9435030C9435030C94350380
:100020000C9435030C9435030C9435030C94350370
:100030000C9435030C9435030C94630B0C9435032A
:100040000C9435030C9435030C9435030C94350350
:100050000C9435030C9435030C9435030C94350340
:100060000C9435030C943503FCFE070303030307CC
:10007000FEFC3F7FE0C0C0C0C0E07F3F30180C06F0
:10008000FFFF00000000C0C0C0C0FFFFC0C0C0C074
:10009000181C0E07030383C7FE7CE0F0F8DCCEC714
:1000A000C3C1C0C0030383C3E3F3BB9F0F0730701A
:1000B000E1C1C1C1C1E37F3E0080C0F03C0F83813C
:1000C0000000060707060606FFFF06067EFFC3C3FD
:1000D000C3C3C3C3830360E0C0C0C0C0C0E1FF7F2F
:1000E000C0E0F0B89C8E878301007FFFE3C1C1C1EF
:1000F000C1E3FF7E030303030303C3F33F1F0000B9
:1001000000F0FC1F070100001C3EE7C3C3C3C3E7A8
:100110003E1C3E7FE3C1C1C1C1E37F3E7CFEC7837D
:10012000838383C7FFFE000081C1E171391D0F0782
:1001300000E0E0E00000005F00000007000700149E
:100140007F147F14242A7F2A1223130864623649FD
:100150005522500005030000001C224100004122EE
:100160001C0014083E081408083E0808005030001F
:100170000008080808080060600000201008040259
:10018000000000000000005F0000000700070014EE
:100190007F147F14242A7F2A1223130864623649AD
:1001A0005522500005030000001C2241000041229E
:1001B0001C0014083E081408083E080800503000CF
:1001C0000008080808080060600000201008040209
:1001D000000000000000005F00000007000700149E
:1001E0007F147F14242A7F2A12231308646236495D
:1001F0005522500005030000001C2241000041224E
:100200001C0014083E081408083E0808005030007E
:1002100000080808080800606000002010080402B8
:100220003E5149453E44427F40404261514946214A
:1002300041454B311814127F1027454545393C4A3A
:10024000494930017109050336494949360649498A
:10025000291E0036360000005636000008142241E0
:100260000014141414140041221408020151090648
:10027000324979413E7E1111117E7F494949363E0E
:10028000414141227F4141221C7F494949417F0927
:100290000909013E4149497A7F0808087F00417FEA
:1002A00041002040413F017F081422417F404040EF
:1002B000407F020C027F7F0408107F3E4141413E97
:1002C0007F090909063E4151215E7F0919294646E9
:1002D0004949493101017F01013F4040403F1F2012
:1002E00040201F3F4038403F6314081463070870E4
:1002F00008076151494543007F414100020408104D
:10030000200041417F00040201020440404040407F
:10031000000102040020545454787F484444383883
:1003200044444420384444487F3854545418087E88
:100330000901020C5252523E7F0804047800447DA9
:1003400040002040443D007F1028440000417F4091
:10035000007C041804787C08040478384444443849
:100360007C14141408081414187C7C08040408482D
:1003700054545420043F4440203C4040207C1C20E6
:1003800040201C3C4030403C44281028440C505035
:10039000503C4464544C44000836410000007F0047
:1003A00000004136080010080810087846414678D9
:1003B000000000000000005F0000000700070014BC
:1003C0007F147F14242A7F2A12231308646236497B
:1003D0005522500005030000001C2241000041226C
:1003E0001C0014083E081408083E0808005030009D
:1003F00000080808080800606000002010080402D7
:10040000000000000000005F00000007000700146B
:100410007F147F14242A7F2A12231308646236492A
:100420005522500005030000001C2241000041221B
:100430001C0014083E081408083E0808005030004C
:100440000008080808080060600000201008040286
:10045000000000000000005F00000007000700141B
:100460007F147F14242A7F2A1223130864623649DA
:100470005522500005030000001C224100004122CB
:100480001C0014083E081408083E080800503000FC
:100490000008080808080060600000201008040236
:1004A0003E5149453E00427F40004261514946214C
:1004B00041454B311814127F1027454545393C4AB8
:1004C0004949300171090503364949493606494908
:1004D000291E00363600000056360000081422415E
:1004E00000141414141400412214080201510906C6
:1004F0007E1111117E7F494949317F494949367F33
:1005000001010103702927217F7F4949494177086B
:100510007F087741414149767F1008047F7F1009A9
:10052000047F7F0814224120413F017F7F020C029B
:100530007F7F0808087F3E4141413E7F0101017FE6
:100540007F090909063E4141412201017F0101471E
:10055000281008071E217F211E63140814633F2002
:1005600020205F070808087F7F407F407F3F203FB3
:10057000205F017F4848307F4830007F007F484837
:1005800030414141493E7F083E413E462919097F9D
:1005900020545454783C4A4A49317C545428007CB5
:1005A0000404040C722A26227E38545454186C1009
:1005B0007C106C44445454387C2010087C7C2112FC
:1005C000097C7C1028440020443C047C7C081008F2
:1005D0007C7C1010107C38444444387C0404047C37
:1005E0007C14141408384444442004047C04044457
:1005F0002810080408147E140844281028443C409D
:10060000407C400C1010107C7C407C407C3C203CAA
:10061000207C047C5050207C5020007C007C50507A
:100620002028444454387C10384438485434147CCE
:1006300011241FBECFEFD8E0DEBFCDBF12E0A0E097
:10064000B1E0E8EBF5E202C005900D92AA35B107E2
:10065000D9F722E0AAE5B2E001C01D92AF36B20799
:10066000E1F70E94FE070C94DA120C94000098E067
:100670004598882314F4449A01C04498459A880FF9
:100680009150B1F70895439842980E943703429AD7
:100690000895CF93C82F862F877080640E944303EC
:1006A0008C2F80680E944303CF910895439A42980B
:1006B0000E943703429A0895CF93DF9360E080E071
:1006C0000E944903CEE8D3E080E00E9456032197C0
:1006D000D9F760E080E00E944903DF91CF9108954F
:1006E00087B18E6387B9419A429A41982FEF81EE84
:1006F00094E0215080409040E1F700C00000419A12
:1007000081E20E94430383E10E94430384E00E944C
:10071000430388EB0E94430380E20E9443038CE082
:100720000E9443030E945C0360E080E00E94490352
:100730000895CF93C82F81E20E9443038C2F8068D5
:100740000E94430380E20E944303CF910895EF92F9
:10075000FF920F931F93CF93DF93062F90E0EC014E
:10076000CC0FDD1FCC0FDD1F8C0F9D1FEC01C05D7A
:10077000DE4F7E0185E0E80EF11C013021F4FE0120
:100780001491109502C0FE011491812F0E9456030E
:10079000812F0E9456032196CE15DF0571F7C1E027
:1007A000013009F0C0E0C1958C2F0E9456038C2FB8
:1007B0000E945603DF91CF911F910F91FF90EF9010
:1007C00008957F928F929F92AF92BF92CF92DF92C5
:1007D000EF92FF920F931F93CF93DF9300D000D03F
:1007E00000D0CDB7DEB7982EB62E6A01822E9A01C0
:1007F000ADECBCEC0E941A0F96958795969587955F
:10080000969587952DEC829F212D1124269526956E
:100810002695422F440F342F330F330F340F482FB8
:10082000431B34E1439FA001112448595F4F5A8371
:100830004983222309F4A8C09DEC299F912D1124FE
:10084000969596959695990F392F330F330F930FF1
:10085000291B44E1249F9001112428593F4F3C83D8
:100860002B8399E2899F812D112482958F7009F441
:1008700091C0A4E18A9FC001112488599F4F9E8393
:100880008D836894AA24A1F887C01F5F0F5FD701EA
:10089000ED91FC91E10FF11D84910E9456031930F6
:1008A00029F4672D892D0E944903EFCF043168F3A5
:1008B00080E00E9456031BE0190D6B2D812F0E94D2
:1008C0004903AA94AA2054F4B1E08B121DC013C0AE
:1008D0000F2EF9E07F2EF02D7B0C01C0912E01E050
:1008E00010E0EA2CEE0CFF0821E030E02C0F3D1F59
:1008F000E20EF31ECCCF69E06B0D812F0E944903FD
:1009000060E080E00E94A70331E1930E6B2D892DFA
:100910000E9449039601ADECBCEC0E941A0F96951B
:10092000879596958795969587959C01220F331FFD
:10093000880F991F880F991F880F991F820F931F87
:10094000C81AD90A84E18C9D70018D9DF00C112488
:1009500001E010E049E0B40E02C01F5F0F5FF70135
:10096000E10FF11DE859FF4F84910E9456031930A1
:1009700029F46B2D892D0E944903EFCF043168F3D0
:1009800080E00E9456030DC06B2D892D0E94490303
:10099000A12C9ECFAA24A3946B2D892D0E944903DC
:1009A00097CF26960FB6F894DEBF0FBECDBFDF916E
:1009B000CF911F910F91FF90EF90DF90CF90BF905C
:1009C000AF909F908F907F9008951F93CF93DF9368
:1009D000EC018881882341F0162F2196612F0E9417
:1009E000A70389918111FACFDF91CF911F910895CB
:1009F000CF93C82F8A3019F48DE00E94F80460E08C
:100A00008C2F0E94A70380E090E0CF910895CF93B0
:100A1000C82F0E945C03C530C9F130F4C130B9F071
:100A200068F0C23051F155C0C73009F44AC008F42B
:100A30003FC0C830C9F0CF3F91F14BC08BE291E08D
:100A40009F938F930E94B30F0F900F9042C061E06D
:100A500080E00E94490382E391E09F938F930E947C
:100A6000B30F0F900F9035C081E491E09F938F9367
:100A70000E94B30F0F900F902CC08FE491E09F93D2
:100A80008F930E94B30F0F900F9023C08DE591E0DC
:100A90009F938F930E94B30F0F900F901AC08BE615
:100AA00091E09F938F930E94B30F0F900F9011C00E
:100AB00087E791E09F938F930E94B30F0F900F9061
:100AC00008C08CE891E09F938F930E94B30F0F9022
:100AD0000F90CF9108956817790718F4229880E055
:100AE0000895229A81E0089590915A02981749F04A
:100AF000981710F091E001C09FEF80935A02892F60
:100B0000089580E008952F923F924F925F926F92E6
:100B10007F928F929F92AF92BF92CF92DF92EF928D
:100B2000FF920F931F93CF93DF93CDB7DEB76897F4
:100B30000FB6F894DEBF0FBECDBF082F8CE0E3E107
:100B4000F1E0DE01119601900D928A95E1F78CE0BB
:100B5000EFE1F1E0DE011D9601900D928A95E1F73B
:100B60008091620285FFACC00E945C0360E080E07F
:100B70000E944903E02FF0E0EE0FFF1F21E030E07C
:100B80002C0F3D1FE20FF31F81818F9380818F9384
:100B90000E94B30F0F900F908091610281117DC070
:100BA00081E0800F80936102023039F128F4002344
:100BB00051F00130A9F07FC00430C9F158F105307F
:100BC00009F442C078C086EF94E090935E0280936F
:100BD0005D0285E692E090936802809367026BC0A5
:100BE0008EEF90E090935E0280935D0288E890E043
:100BF00090936802809367025EC084E690E09093D1
:100C00005E0280935D0283E692E090936802809397
:100C1000670251C081E090E090935E0280935D0294
:100C20008BE592E0909368028093670244C080E86D
:100C300090E090935E0280935D028EE091E090934D
:100C400068028093670237C0F89480916202877FC0
:100C500080936202609165027091660283E090E089
:100C60000E947A12609188007091890082E090E081
:100C70000E9468126091630281E090E00E94681215
:100C800060915B0280E090E00E94681260910E012A
:100C900082E191E00E9468120EC085E090E090939E
:100CA0005E0280935D0280E191E090936802809300
:100CB000670210926102809162028F7D80936202CE
:100CC00010916102123009F416C130F4112369F059
:100CD000113009F406C152C1143009F428C108F4D6
:100CE0001CC1153009F43DC149C10E945C03332485
:100CF0003394222423940F2EF1E44F2EF2E05F2E42
:100D0000F02D0F2EF7ED8F2EF1E09F2EF02D0F2EF0
:100D1000F5EAAF2EF1E0BF2EF02D0F2EFAE0CF2E28
:100D2000F2E0DF2EF02D0F2EF8E86F2E712CF02D53
:100D30000F2EFAE4EF2EF2E0FF2EF02D02C01F5F1F
:100D40003394612F80E00E944903622D011360E01B
:100D5000E12FF0E0EE0FFF1F81E090E08C0F9D1F70
:100D6000E80FF91F848595850E94E504123009F487
:100D70005CC028F4112351F01130F1F1ADC01330F3
:100D800009F489C0143009F498C0A6C040916502E6
:100D9000509166029A01ADECBCEC0E941A0F969538
:100DA000879596958795969587959C01220F331F79
:100DB000880F991F880F991F880F991F820F931F03
:100DC000FA01E81BF90BCF019F93EF939A010E9460
:100DD0001A0F9695879596958795969587959F93E3
:100DE0008F935F924F920E94B30F0F900F900F90CE
:100DF0000F900F900F90A3CFF301208131811F92AC
:100E0000F5E2FF9344E6429FC001439F900D1124F9
:100E10001F929F93FF92EF920E94B30F0F900F903B
:100E20000F900F900F900F908ACF409163025091D6
:100E300064029A01ADECBCEC0E941A0F969587955E
:100E400096958795969587959C01220F331F880F5D
:100E5000991F880F991F880F991F820F931FFA01FE
:100E6000E81BF90BCF019F93EF939A010E941A0F91
:100E70009695879596958795969587959F938F9349
:100E80005F924F920E94B30F0F900F900F900F90B0
:100E90000F900F9054CF80915B0280FD07C0BF92EE
:100EA000AF920E94B30F0F900F9049CF9F928F92F5
:100EB0000E94B30F0F900F9042CF80910F018F933C
:100EC00080910E018F93DF92CF920E94B30F0F900B
:100ED0000F900F900F9033CFF5E0F31508F44EC04C
:100EE0002ECF409165025091660221E062E08EE1D2
:100EF0000E94E10343C0209188003091890044E6BC
:100F0000429FC001439F900D112420E0492F50E0E3
:100F100062E08EE10E94E10331C040916302509192
:100F2000640221E062E08EE10E94E10327C062E0FA
:100F300080E00E94490380915B0280FD09C08AEA3B
:100F400091E09F938F930E94B30F0F900F9016C064
:100F500082EB91E09F938F930E94B30F0F900F90BD
:100F60000DC040910E0150910F0120E062E08EE132
:100F70000E94E10380910E010E94990368960FB6CA
:100F8000F894DEBF0FBECDBFDF91CF911F910F91BF
:100F9000FF90EF90DF90CF90BF90AF909F908F9099
:100FA0007F906F905F904F903F902F90089585E0D5
:100FB00085BD16BC80E187BD82E080936E0083E230
:100FC000809380008DE08093810010928500E4E89A
:100FD000F0E0108210928700109286001092890033
:100FE0001092880010928B0010928A001182108259
:100FF0000E94700384E00E94950E0895CF93DF93C2
:10100000CDB7DEB768970FB6F894DEBF0FBECDBF81
:1010100080E091E090936C0280936B021A8A198AA7
:101020001C8A1B8A1D8A109262020E94D70783E0E5
:1010300090E00E946212909366028093650201968E
:10104000D1F462E771E083E090E00E948E1260E8E4
:1010500082E090E00E94801268E081E090E00E94CF
:10106000801260E080E090E00E94801260E482E103
:1010700091E00E94801283E090E00E9462129093BF
:1010800066028093650281E090E00E945A1290E02F
:10109000909364028093630282E090E00E945A126F
:1010A00090E0909389008093880080E090E00E9417
:1010B0005A1290E090935C0280935B0282E191E08F
:1010C0000E945A12282F30E030930F0120930E0116
:1010D0000E9499039E012B5E3F4F44E062E0CE01E7
:1010E00001960E94D50C9D89923009F088E00E94FB
:1010F000070561E080E00E9449038D891F928F936C
:101100008DEF91E09F938F930E94B30F0F900F90FC
:101110000F900F9000E620E040E0BE016F5F7F4F30
:1011200084E00E94450D8430A9F700E620E040E00D
:10113000BE01675F7F4F84E00E94450D8430A9F7B0
:1011400000E01E8AA12CB12C812C912C0F2EF7E1EE
:101150006F2EF2E07F2EF02D0F2EF0E22F2EF2E018
:101160003F2EF02D0F2EFBE34F2EF2E05F2EF02DE1
:101170008091620283FD77C210E0E12EF12CA7017D
:10118000440F551F81E190E08C0F9D1F480F591FA0
:10119000B701660F771F660F771F660F771FE1E0B5
:1011A000F0E0EC0FFD1F6E0F7F1F84E00E94BA0D70
:1011B0008823B9F00E94070561E080E00E9449039E
:1011C000FFEFEF1AFF0AFF92EF922DE032E03F931C
:1011D0002F930E94B30F22980F900F900F900F90B3
:1011E00001C01F5F123048F2C988DA888B899C8958
:1011F000C80ED91E7601F694E794B501C7010E9486
:101200006B059091620280FB92F99093620290FDCF
:1012100015C0A0906502B0906602C5010A978E15B0
:101220009F0530F057019AE0A90EB11C0AE001C0F9
:1012300001E080916202816080936202809162028B
:1012400082FF63C08D7F80936202EE89EE2351F1AD
:10125000EF5FEE8BEA3071F52F89388D2E153F0543
:1012600031F58091650290916602A816B90609F1E0
:10127000E8E8F0E0808191818F3F910538F480911A
:101280005B0290915C028170992702C080E090E03F
:10129000E8E8F0E020813181820F931F9183808301
:1012A0001E8A08C0F88EEF8AF1E0FE8B03C01E8A0A
:1012B00001C01E8AC5014497E816F90608F057C018
:1012C000E8E8F0E080819181863F910538F48091D3
:1012D0005B0280FF06C02AE030E005C020E030E07D
:1012E00002C020E030E0E8E8F0E080819181820FE8
:1012F000931F91838083809162028E7F809362022C
:1013000086E00E940705450135C0E814F90488F518
:1013100081FD30C08091620282608E7F8093620284
:1013200080916302909164028A0D9B1D8815990536
:1013300008F5E8E8F0E020813181802F90E0821705
:10134000930738F480915B0280FF06C0202F30E0C5
:1013500005C020E030E002C020E030E0E8E8F0E046
:1013600080819181821B930B9183808303C045010F
:1013700001C047010E945C0360E080E00E944903D5
:1013800049895A899A01ADECBCEC0E941A0F9695D6
:10139000879596958795969587959C01220F331F83
:1013A000880F991F880F991F880F991F820F931F0D
:1013B0009A01281B390BC9019F932F939A010E9410
:1013C0001A0F9695879596958795969587959F93ED
:1013D0008F937F926F920E94B30F61E080E00E9432
:1013E00049034B895C899A01ADECBCEC0E941A0F51
:1013F0009695879596958795969587959C01220F4A
:10140000331F880F991F880F991F880F991F820F0C
:10141000931FFA01E81BF90BCF019F93EF939A01F9
:101420000E941A0F9695879596958795969587951C
:101430009F938F933F922F920E94B30F62E080E0C0
:101440000E9449039701ADECBCEC0E941A0F9695DF
:10145000879596958795969587959C01220F331FC2
:10146000880F991F880F991F880F991F820F931F4C
:10147000E81AF90AFF92EF9296010E941A0F9295CC
:1014800082958F7089279F7089279F938F9329E278
:1014900032E03F932F930E94B30F63E080E00E94FD
:1014A000490340916502509166029A01ADECBCEC93
:1014B0000E941A0F9695879596958795969587958C
:1014C0009C01220F331F880F991F880F991F880FC7
:1014D000991F820F931FFA01E81BF90BCF019F930D
:1014E000EF939A010E941A0F969587959695879586
:1014F000969587959F938F9322E332E03F932F93A6
:101500000E94B30F64E080E00E94490340916302AF
:10151000509164029A01ADECBCEC0E941A0F9695B2
:10152000879596958795969587959C01220F331FF1
:10153000880F991F880F991F880F991F820F931F7B
:10154000FA01E81BF90BCF019F93EF939A010E94D8
:101550001A0F9695879596958795969587959F935B
:101560008F93A4014A195B099A010E941A0F96955C
:10157000879596958795969587959C01220F331FA1
:10158000880F991F880F991F880F991F820F931F2B
:101590009A01281B390BC9019F932F939A010E942E
:1015A0001A0F9695879596958795969587959F930B
:1015B0008F935F924F920E94B30F0FB6F894DEBFE5
:1015C0000FBECDBF65E080E00E944903E8E8F0E08F
:1015D000208131811F9285E28F9344E6429FC001B2
:1015E000439F900D11241F929F9387E492E09F9355
:1015F0008F930E94B30F0F900F900F900F900F904A
:101600000F904D9B05C0809162028F7E8093620295
:101610004D99AECD8091620284FDAACD22981092A0
:1016200061028091620288608F7D80618093620296
:1016300085E090E090935E0280935D0284E090E00C
:10164000909311018093100120E131E03093680202
:10165000209367020E945C03E0E1F1E080810E9438
:101660008305789485CDE0916702F09168028081CE
:101670000E947405811104C08091620285FFF3CF3E
:10168000E0916702F091680280819181992334F49E
:1016900080915D0290915E0291838083E091670268
:1016A000F09168022081318180915D0290915E020B
:1016B0008217930710F411821082E0E1F1E080813B
:1016C0000E94830555CD1F920F920FB60F921124E1
:1016D0002F933F934F935F938F939F93EF93FF933A
:1016E00016BC89B1807C80935F02811104C080E8C0
:1016F0008093600244C090916002992309F43FC036
:101700008038E1F0803C19F08034C9F528C0903869
:10171000B1F1E0916702F091680220813181992353
:101720001CF481E090E002C08FEF9FEFA901481BFD
:10173000590B518340831092600221C091509093C5
:1017400060029530E0F4E0916702F09168028081D8
:1017500091810197918380831092600210C09F5FF6
:10176000909360029B3F58F0E0916702F09168020D
:1017700080819181019691838083109260024D9BBC
:1017800005C0809162028F7E809362024D9908C0ED
:101790008091620284FD04C0806180628093620255
:1017A000FF91EF919F918F915F914F913F912F9179
:1017B0000F900FBE0F901F90189598E038E1282FDA
:1017C000262720FD02C0669503C0632766956068E2
:1017D00086959150A1F7862F0895EF92FF920F936F
:1017E0001F93CF93DF937C018C01095F1F4FEC01A6
:1017F00060E089910E94DD0B682F0C171D07C9F767
:1018000081E0F7019781961301C080E0DF91CF91CD
:101810001F910F91FF90EF900895EF92FF920F9319
:101820001F93CF93DF937C018C01085F1F4FEC0166
:1018300060E089910E94DD0B682F0C171D07C9F726
:1018400081E0F7019085961301C080E0DF91CF9190
:101850001F910F91FF90EF9008951F93CF93DF9307
:10186000D82F162FC8E0D0FF04C0812F0E94A20EEF
:1018700003C0812F0E94BC0ED695C150A1F7DF9105
:10188000CF911F9108951F93CF93DF93182FD8E026
:10189000C0E0C695812F0E94D50E8111C068D1503D
:1018A000C1F78C2FDF91CF911F910895FF920F9375
:1018B0001F93CF93DF938C01F62E85E50E942D0CAC
:1018C000E801085F1F4F6F2D89910E942D0CC017F2
:1018D000D107C9F7DF91CF911F910F91FF90089524
:1018E000CF92DF92EF92FF920F931F93CF93DF93EC
:1018F0008C01D62EF42E642F80EF0E942D0CC1E0B7
:10190000C12CD1E08F2D0E94D50EE82E8F2D0E9484
:10191000D50EEE2009F43DC0811139C0F801908147
:101920009C2B90831DC0F80120819C2F90959223C1
:10193000908316C0DD1205C0F80180818C2B808356
:101940000FC0DD1640F4F80190818C2F809589231B
:101950008083CD2E05C0F80190819C2349F004C0FE
:10196000F80190819C2329F08F2D0E94A20E04C0C3
:10197000CD2E8F2D0E94BC0EDF5FCC0F19F40F5FB0
:101980001F4FC1E0D13409F0BDCF8C2D05C08FEFC2
:1019900003C0882379F2C7CFDF91CF911F910F91B8
:1019A000FF90EF90DF90CF900895BF92CF92DF929B
:1019B000EF92FF920F931F93CF93DF937C01B42E8E
:1019C0006901662371F0FC0120E008C011928E17B6
:1019D0009F07E1F72F5FFC01621719F0CF0108960E
:1019E000F5CFDE2DCF2DEE2DFF2D10E000E002C053
:1019F000D82FC92F88E0AD2FBC2F01900D928A956A
:101A0000E1F78B2D0E94F60E81110AC08FE492E05F
:101A10009F938F930E94B30F0F900F908FEF2BC067
:101A20004B2D602F8D2F9C2F0E94700C082F1F5F55
:101A3000C70128E0129F800D911D1124ED2FFC2F6E
:101A40000111D6CF1123B1F0D0E0C0E005E0C7010D
:101A50000E94ED0B811105C0F60190819F5F90837C
:101A600001C0D02FCF5FF8E0EF0EF11C1C13EFCFB9
:101A70008D2F01C080E0DF91CF911F910F91FF90DA
:101A8000EF90DF90CF90BF900895AF92BF92CF922A
:101A9000DF92EF92FF920F931F93CF93DF93CDB717
:101AA000DEB729970FB6F894DEBF0FBECDBF182F53
:101AB0007B01B42EA22E0E94F60E612FC7010E9458
:101AC000560C612F8EE40E942D0C612F8B2D0E94ED
:101AD0002D0C612F8A2D0E942D0C612F802F0E94CA
:101AE0002D0C812F0E94F60E612FC7010E94560C0B
:101AF000612F8EEB0E942D0CCE0101967C016E01B0
:101B00009AE0C90ED11C812F0E94430CF7018193EA
:101B10007F01EC15FD05B9F7CE0101960E940D0C71
:101B2000811110C08B81B8120FC08C81A8120EC019
:101B30002D81207630E0802F90E02817390741F47E
:101B400084E007C081E005C083E003C083E001C0FA
:101B500083E029960FB6F894DEBF0FBECDBFDF91AC
:101B6000CF911F910F91FF90EF90DF90CF90BF909A
:101B7000AF9008952F923F924F925F926F927F9213
:101B80008F929F92AF92BF92CF92DF92EF92FF928D
:101B90000F931F93CF93DF93CDB7DEB72A970FB67E
:101BA000F894DEBF0FBECDBFF82E8B012A010E9434
:101BB000F60E6F2DC8010E94560C6F2D84E40E9412
:101BC0002D0C8F2D0E94D50E8823D9F38F2D0E94C6
:101BD000F60E6F2DC8010E94560C6F2D8EEB0E94E1
:101BE0002D0C8E010F5F1F4F6E018AE0C80ED11CB5
:101BF0008F2D0E94430CF80181938F01CE16DF06D2
:101C0000B9F7CE0101960E940D0C782E811171C09A
:101C10008A80912C982C88248981882AE82DEF705D
:101C20002E2F30E040E050E060E070E080E090E097
:101C300002E00E94880FA22EB32EC42ED52EE62ECF
:101C4000F72EF82F192F05E00E94880F0F2F0E9402
:101C5000AA0FAE2EB12CC12CD12CE12CF12C00E01E
:101C600010E00E94A10F222E332E642E5A87B62F29
:101C7000A72FF82FE92F02E00E94880FA22EB32E83
:101C8000C42ED52EE62EF72E082F192F222D332DF8
:101C9000462D5A856B2F7A2F8F2F9E2F0E94A10FD2
:101CA0000F2EF8EEAF2EF02D0F2EF3E0BF2EF02DFD
:101CB000C12CD12CE12CF12C00E010E00E942B0F64
:101CC0009694879496948794969487949694879400
:101CD000C401880F991F880C991C880C991C880CCA
:101CE000991C880E991E820E911CF20191828082AD
:101CF00002C077247394872D2A960FB6F894DEBF1E
:101D00000FBECDBFDF91CF911F910F91FF90EF904C
:101D1000DF90CF90BF90AF909F908F907F906F900B
:101D20005F904F903F902F9008959AB1809598239F
:101D30009AB99BB189238BB980E897E00197F1F7B5
:101D400000C008952FB7F8949AB1982B9AB99BB117
:101D5000809598239BB99BE19A95F1F700C09AB1C1
:101D600098239AB99BB189238BB98CEF90E00197A6
:101D7000F1F700C02FBF08952FB7F8949AB1982BB0
:101D80009AB99BB1809598239BB9ECEEF0E031971E
:101D9000F1F700C09AB198239AB99BB189238BB906
:101DA000F1E3FA95F1F72FBF08953FB7F8949AB190
:101DB000982B9AB92BB1982F909529232BB92BE109
:101DC0002A95F1F700C02AB129232AB92BB1922311
:101DD0009BB99BE29A95F1F700C099B1E8EDF0E06C
:101DE0003197F1F700C03FBF892308953FB7F894BA
:101DF0009AB1982B9AB92BB1982F909529232BB98A
:101E0000E0E8F7E03197F1F700C02AB129232AB9B9
:101E10002BB192239BB9E4E1F1E03197F1F700C0D7
:101E200099B1E4E6F6E03197F1F700C03FBF909535
:101E300089230895A29FB001B39FC001A39F700D95
:101E4000811D1124911DB29F700D811D1124911DC2
:101E50000895689401C0E8948F929F92CF93DF9386
:101E60000E94370FDF91CF919F908F900895882423
:101E70009924F401E401B0E49F93AA279A158B04F6
:101E80009C04ED05FE05CF05D007A10798F4AD2F02
:101E9000DC2FCF2FFE2FE92D982C892E982F872FFE
:101EA000762F652F542F432F322F2227B85031F72A
:101EB000BF9127C01B2EBF91BB27220F331F441F8A
:101EC000551F661F771F881F991F881C991CEE1FBE
:101ED000FF1FCC1FDD1FAA1FBB1F8A149B04EC052C
:101EE000FD05CE05DF05A007B10748F08A189B085D
:101EF000EC09FD09CE09DF09A00BB10B21601A9492
:101F0000E1F62EF49401AF01BE01CD01000C08955D
:101F10000F93083090F0982F872F762F652F542F2E
:101F2000432F322F22270850F4CF220F331F441F94
:101F3000551F661F771F881F991F0A95B2F70F91CB
:101F400008952A0D3B1D4C1D5D1D6E1D7F1D801FBC
:101F5000911F08952A193B094C095D096E097F09F3
:101F6000800B910B0895A0E0B0E0E9EBFFE00C944A
:101F7000B312AE014B5F5F4FFA0161917191AF01F6
:101F800080916B0290916C020E94C90FE2E00C9468
:101F9000CF12ABE0B0E0EFECFFE00C94A3126C01C9
:101FA0007B018A01FC0117821682838181FFCCC1EB
:101FB000CE0101963C01F6019381F70193FD8591D5
:101FC00093FF81917F01882309F4BAC1853239F4E6
:101FD00093FD859193FF81917F01853229F4B601AC
:101FE00090E00E94C011E7CF912C212C312CFFE111
:101FF000F315D8F08B3279F038F4803279F08332EF
:10200000A1F4232D20611DC08D3261F0803369F46D
:10201000232D216016C0832D8260382EE32DE460CD
:102020003E2E2AC0F32DF8601DC037FC2DC020EDD8
:10203000280F2A3040F08E32B9F436FC81C1232DAE
:102040002064322E19C036FE06C08AE0989E200D0C
:102050001124922E11C0EAE02E9E200D1124222E72
:10206000F32DF0623F2E08C08C3621F4832D80685A
:10207000382E02C0883641F4F70193FD859193FF15
:1020800081917F018111B3CF982F9F7D955493301B
:1020900028F40C5F1F4F9FE399830DC0833631F006
:1020A000833771F0833509F059C021C0F801808170
:1020B00089830E5F1F4F88248394912C530113C092
:1020C0002801F2E04F0E511CF801A080B18036FECD
:1020D00003C0692D70E002C06FEF7FEFC5010E9461
:1020E000B5114C018201F32DFF773F2E16C0280158
:1020F00022E0420E511CF801A080B18036FE03C0E0
:10210000692D70E002C06FEF7FEFC5010E94AA1138
:102110004C01F32DF0683F2E820133FC1BC0822D51
:1021200090E088169906B0F4B60180E290E00E9433
:10213000C0112A94F4CFF50137FC859137FE8191C7
:102140005F01B60190E00E94C01121102A9421E0A5
:10215000821A91088114910471F7E8C0843611F055
:10216000893641F5F80137FE07C0608171818281AF
:1021700093810C5F1F4F08C060817181072E000C96
:10218000880B990B0E5F1F4FF32DFF763F2E97FFA5
:1021900009C090958095709561957F4F8F4F9F4FA7
:1021A000F0683F2E2AE030E0A3010E94FC11882E47
:1021B000861845C0853731F4232D2F7EB22E2AE0B4
:1021C00030E025C0932D997FB92E8F36C1F018F4D9
:1021D000883579F0B5C0803719F0883721F0B0C064
:1021E000E92FE061BE2EB4FE0DC0FB2DF460BF2EC2
:1021F00009C034FE0AC0292F2660B22E06C028E08E
:1022000030E005C020E130E002C020E132E0F8011A
:10221000B7FE07C060817181828193810C5F1F4F7F
:1022200006C06081718180E090E00E5F1F4FA301C6
:102230000E94FC11882E8618FB2DFF773F2E36FE5C
:102240000DC0232D2E7FA22E891458F434FE0BC00E
:1022500032FC09C0832D8E7EA82E05C0B82CA32C7D
:1022600003C0B82C01C0B92CA4FE0FC0FE01E80DBC
:10227000F11D8081803321F49A2D997EA92E09C009
:10228000A2FE06C0B394B39404C08A2D867809F0E8
:10229000B394A3FC11C0A0FE06C0B21488F4280CAD
:1022A000922C9B180EC0B21460F4B60180E290E04C
:1022B0000E94C011B394F7CFB21418F42B1802C0C7
:1022C000982C212CA4FE10C0B60180E390E00E945F
:1022D000C011A2FE17C0A1FC03C088E790E002C0B5
:1022E00088E590E0B6010CC08A2D867859F0A1FEF1
:1022F00002C08BE201C080E2A7FC8DE2B60190E053
:102300000E94C011891438F4B60180E390E00E9465
:10231000C0119A94F7CF8A94F301E80DF11D8081E2
:10232000B60190E00E94C0118110F5CF222009F47F
:1023300042CEB60180E290E00E94C0112A94F6CF0E
:10234000F6018681978102C08FEF9FEF2B96E2E125
:102350000C94BF12FC010590615070400110D8F739
:10236000809590958E0F9F1F0895FC0161507040DD
:1023700001900110D8F7809590958E0F9F1F0895BA
:102380000F931F93CF93DF93FB01238121FD03C0A4
:102390008FEF9FEF2CC022FF16C04681578124810A
:1023A00035814217530744F4A081B1819D012F5F0D
:1023B0003F4F318320838C93268137812F5F3F4F9E
:1023C0003783268314C08B01EC01FB010084F18567
:1023D000E02D0995892BE1F6D80116968D919C91F7
:1023E0001797019617969C938E931697CE01DF91BF
:1023F000CF911F910F910895FA01AA27283051F12A
:10240000203181F1E8946F936E7F6E5F7F4F8F4F25
:102410009F4FAF4FB1E03ED0B4E03CD0670F781F84
:10242000891F9A1FA11D680F791F8A1F911DA11D69
:102430006A0F711D811D911DA11D20D009F46894A2
:102440003F912AE0269F11243019305D3193DEF64A
:10245000CF010895462F4770405D4193B3E00FD000
:10246000C9F7F6CF462F4F70405D4A3318F0495DEB
:1024700031FD4052419302D0A9F7EACFB4E0A695CE
:102480009795879577956795BA95C9F700976105F0
:10249000710508959B01AC010A2E06945795479546
:1024A00037952795BA95C9F7620F731F841F951F3B
:1024B000A01D0895F999FECF92BD81BDF89A992784
:1024C00080B50895A8E1B0E042E050E00C94951288
:1024D000262FF999FECF92BD81BDF89A019700B4DD
:1024E000021639F01FBA20BD0FB6F894FA9AF99A7D
:1024F0000FBE08950196272F0E9469120C9468124E
:10250000262FF999FECF1FBA92BD81BD20BD0FB60F
:10251000F894FA9AF99A0FBE019608950E948012D3
:10252000272F0C948112DC01CB01FC01F999FECF1D
:1025300006C0F2BDE1BDF89A319600B40D9241504B
:102540005040B8F708952F923F924F925F926F924A
:102550007F928F929F92AF92BF92CF92DF92EF9233
:10256000FF920F931F93CF93DF93CDB7DEB7CA1BB4
:10257000DB0B0FB6F894DEBF0FBECDBF09942A88DF
:10258000398848885F846E847D848C849B84AA8487
:10259000B984C884DF80EE80FD800C811B81AA8114
:1025A000B981CE0FD11D0FB6F894DEBF0FBECDBFDF
:0825B000ED010895F894FFCF3E
:1025B8000000000200000000F804000000003C00D9
:1025C800010040BA01C301CB01D301DB01E301E9FA
:1025D80001EC01F101F501F901E301C2D1C520CEF9
:1025E800CA00CED8C8C1CAC020D7D2C5CDC8DF203E
:1025F80000C4E0F2F7E8EAEEE220ECE0EBEE00CE11
:10260800F2F0E8F620F2E5ECEF2DF0E000CED8206D
:10261800CFCEC8D1CAC02043524300CDC5D220C4B2
:10262800C0D2D7C8CAC000D2E5ECEFE5F0E0F2F3BB
:10263800F0E0202020EFE0E4E0E5F200D2E5ECEF66
:10264800E5F0E0F2F3F0E0202020F1F2E0E1E8EB41
:10265800FCEDE0FF00D0F3F7ED00D0F3F7EDEEE985
:102668002000C0E2F2EEECE0F200CFF0E5E4E5EBAA
:10267800207400CCEEF92DF1F2FC00C2FBE1E5E399
:10268800207400D0F3F72FC0E2F200CAEEEDF2F0AA
:10269800E0F100C2FBF5EEE400CF7400CCEEF9FCEB
:1026A80000C2207400D02FC000CAF1F200CA2DE287
:1026B800EE20E4E0F22DEAEEE220256400C4E0F228
:1026C800F7E8EA2025640025642E25642031E4001B
:1026D80025642E25642032E40025642E256420D14B
:1026E800F00025642E256420CFF00025642E256493
:1026F8002025642E256400CC3A2025642563006ECD
:0A2708006F206461746368696B0060
:00000001FF
