:100000000C9418030C9435030C9435030C943503AD
:100010000C9435030C9435030C9435030C94350380
:100020000C9435030C9435030C9435030C94350370
:100030000C9435030C9435030C94700B0C9435031D
:100040000C9435030C9435030C9435030C94350350
:100050000C9435030C9435030C9435030C94350340
:100060000C9435030C943503FCFE070303030307CC
:10007000FEFC3F7FE0C0C0C0C0E07F3F30180C06F0
:10008000FFFF00000000C0C0C0C0FFFFC0C0C0C074
:10009000181C0E07030383C7FE7CE0F0F8DCCEC714
:1000A000C3C1C0C0030383C3E3F3BB9F0F0730701A
:1000B000E1C1C1C1C1E37F3E0080C0F03C0F83813C
:1000C0000000060707060606FFFF06067EFFC3C3FD
:1000D000C3C3C3C3830360E0C0C0C0C0C0E1FF7F2F
:1000E000C0E0F0B89C8E878301007FFFE3C1C1C1EF
:1000F000C1E3FF7E030303030303C3F33F1F0000B9
:1001000000F0FC1F070100001C3EE7C3C3C3C3E7A8
:100110003E1C3E7FE3C1C1C1C1E37F3E7CFEC7837D
:10012000838383C7FFFE000081C1E171391D0F0782
:1001300000E0E0E00000005F00000007000700149E
:100140007F147F14242A7F2A1223130864623649FD
:100150005522500005030000001C224100004122EE
:100160001C0014083E081408083E0808005030001F
:100170000008080808080060600000201008040259
:10018000000000000000005F0000000700070014EE
:100190007F147F14242A7F2A1223130864623649AD
:1001A0005522500005030000001C2241000041229E
:1001B0001C0014083E081408083E080800503000CF
:1001C0000008080808080060600000201008040209
:1001D000000000000000005F00000007000700149E
:1001E0007F147F14242A7F2A12231308646236495D
:1001F0005522500005030000001C2241000041224E
:100200001C0014083E081408083E0808005030007E
:1002100000080808080800606000002010080402B8
:100220003E5149453E44427F40404261514946214A
:1002300041454B311814127F1027454545393C4A3A
:10024000494930017109050336494949360649498A
:10025000291E0036360000005636000008142241E0
:100260000014141414140041221408020151090648
:10027000324979413E7E1111117E7F494949363E0E
:10028000414141227F4141221C7F494949417F0927
:100290000909013E4149497A7F0808087F00417FEA
:1002A00041002040413F017F081422417F404040EF
:1002B000407F020C027F7F0408107F3E4141413E97
:1002C0007F090909063E4151215E7F0919294646E9
:1002D0004949493101017F01013F4040403F1F2012
:1002E00040201F3F4038403F6314081463070870E4
:1002F00008076151494543007F414100020408104D
:10030000200041417F00040201020440404040407F
:10031000000102040020545454787F484444383883
:1003200044444420384444487F3854545418087E88
:100330000901020C5252523E7F0804047800447DA9
:1003400040002040443D007F1028440000417F4091
:10035000007C041804787C08040478384444443849
:100360007C14141408081414187C7C08040408482D
:1003700054545420043F4440203C4040207C1C20E6
:1003800040201C3C4030403C44281028440C505035
:10039000503C4464544C44000836410000007F0047
:1003A00000004136080010080810087846414678D9
:1003B000000000000000005F0000000700070014BC
:1003C0007F147F14242A7F2A12231308646236497B
:1003D0005522500005030000001C2241000041226C
:1003E0001C0014083E081408083E0808005030009D
:1003F00000080808080800606000002010080402D7
:10040000000000000000005F00000007000700146B
:100410007F147F14242A7F2A12231308646236492A
:100420005522500005030000001C2241000041221B
:100430001C0014083E081408083E0808005030004C
:100440000008080808080060600000201008040286
:10045000000000000000005F00000007000700141B
:100460007F147F14242A7F2A1223130864623649DA
:100470005522500005030000001C224100004122CB
:100480001C0014083E081408083E080800503000FC
:100490000008080808080060600000201008040236
:1004A0003E5149453E00427F40004261514946214C
:1004B00041454B311814127F1027454545393C4AB8
:1004C0004949300171090503364949493606494908
:1004D000291E00363600000056360000081422415E
:1004E00000141414141400412214080201510906C6
:1004F0007E1111117E7F494949317F494949367F33
:1005000001010103702927217F7F4949494177086B
:100510007F087741414149767F1008047F7F1009A9
:10052000047F7F0814224120413F017F7F020C029B
:100530007F7F0808087F3E4141413E7F0101017FE6
:100540007F090909063E4141412201017F0101471E
:10055000281008071E217F211E63140814633F2002
:1005600020205F070808087F7F407F407F3F203FB3
:10057000205F017F4848307F4830007F007F484837
:1005800030414141493E7F083E413E462919097F9D
:1005900020545454783C4A4A49317C545428007CB5
:1005A0000404040C722A26227E38545454186C1009
:1005B0007C106C44445454387C2010087C7C2112FC
:1005C000097C7C1028440020443C047C7C081008F2
:1005D0007C7C1010107C38444444387C0404047C37
:1005E0007C14141408384444442004047C04044457
:1005F0002810080408147E140844281028443C409D
:10060000407C400C1010107C7C407C407C3C203CAA
:10061000207C047C5050207C5020007C007C50507A
:100620002028444454387C10384438485434147CCE
:1006300011241FBECFEFD8E0DEBFCDBF12E0A0E097
:10064000B1E0E2EDF5E202C005900D92A835B107E8
:10065000D9F722E0A8E5B2E001C01D92AD36B2079D
:10066000E1F70E9403080C94E7120C94000098E054
:100670004598882314F4449A01C04498459A880FF9
:100680009150B1F70895439842980E943703429AD7
:100690000895CF93C82F862F877080640E944303EC
:1006A0008C2F80680E944303CF910895439A42980B
:1006B0000E943703429A0895CF93DF9360E080E071
:1006C0000E944903CEE8D3E080E00E9456032197C0
:1006D000D9F760E080E00E944903DF91CF9108954F
:1006E00087B18E6387B9419A429A41982FEF81EE84
:1006F00094E0215080409040E1F700C00000419A12
:1007000081E20E94430383E10E94430384E00E944C
:10071000430388EB0E94430380E20E9443038CE082
:100720000E9443030E945C0360E080E00E94490352
:100730000895CF93C82F81E20E9443038C2F8068D5
:100740000E94430380E20E944303CF910895EF92F9
:10075000FF920F931F93CF93DF93062F90E0EC014E
:10076000CC0FDD1FCC0FDD1F8C0F9D1FEC01C05D7A
:10077000DE4F7E0185E0E80EF11C013021F4FE0120
:100780001491109502C0FE011491812F0E9456030E
:10079000812F0E9456032196CE15DF0571F7C1E027
:1007A000013009F0C0E0C1958C2F0E9456038C2FB8
:1007B0000E945603DF91CF911F910F91FF90EF9010
:1007C00008957F928F929F92AF92BF92CF92DF92C5
:1007D000EF92FF920F931F93CF93DF9300D000D03F
:1007E00000D0CDB7DEB7982EB62E6A01822E9A01C0
:1007F000ADECBCEC0E94270F969587959695879552
:10080000969587952DEC829F212D1124269526956E
:100810002695422F440F342F330F330F340F482FB8
:10082000431B34E1439FA001112448595F4F5A8371
:100830004983222309F4A8C09DEC299F912D1124FE
:10084000969596959695990F392F330F330F930FF1
:10085000291B44E1249F9001112428593F4F3C83D8
:100860002B8399E2899F812D112482958F7009F441
:1008700091C0A4E18A9FC001112488599F4F9E8393
:100880008D836894AA24A1F887C01F5F0F5FD701EA
:10089000ED91FC91E10FF11D84910E9456031930F6
:1008A00029F4672D892D0E944903EFCF043168F3A5
:1008B00080E00E9456031BE0190D6B2D812F0E94D2
:1008C0004903AA94AA2054F4B1E08B121DC013C0AE
:1008D0000F2EF9E07F2EF02D7B0C01C0912E01E050
:1008E00010E0EA2CEE0CFF0821E030E02C0F3D1F59
:1008F000E20EF31ECCCF69E06B0D812F0E944903FD
:1009000060E080E00E94A70331E1930E6B2D892DFA
:100910000E9449039601ADECBCEC0E94270F96950E
:10092000879596958795969587959C01220F331FFD
:10093000880F991F880F991F880F991F820F931F87
:10094000C81AD90A84E18C9D70018D9DF00C112488
:1009500001E010E049E0B40E02C01F5F0F5FF70135
:10096000E10FF11DE859FF4F84910E9456031930A1
:1009700029F46B2D892D0E944903EFCF043168F3D0
:1009800080E00E9456030DC06B2D892D0E94490303
:10099000A12C9ECFAA24A3946B2D892D0E944903DC
:1009A00097CF26960FB6F894DEBF0FBECDBFDF916E
:1009B000CF911F910F91FF90EF90DF90CF90BF905C
:1009C000AF909F908F907F9008951F93CF93DF9368
:1009D000EC018881882341F0162F2196612F0E9417
:1009E000A70389918111FACFDF91CF911F910895CB
:1009F000CF93C82F8A3019F48DE00E94F80460E08C
:100A00008C2F0E94A70380E090E0CF910895CF93B0
:100A1000C82F0E945C03C530C9F130F4C130B9F071
:100A200068F0C23051F155C0C73009F44AC008F42B
:100A30003FC0C830C9F0CF3F91F14BC08BE291E08D
:100A40009F938F930E94C00F0F900F9042C061E060
:100A500080E00E94490382E391E09F938F930E947C
:100A6000C00F0F900F9035C081E491E09F938F935A
:100A70000E94C00F0F900F902CC08FE491E09F93C5
:100A80008F930E94C00F0F900F9023C08DE591E0CF
:100A90009F938F930E94C00F0F900F901AC08BE608
:100AA00091E09F938F930E94C00F0F900F9011C001
:100AB00087E791E09F938F930E94C00F0F900F9054
:100AC00008C08CE891E09F938F930E94C00F0F9015
:100AD0000F90CF9108956817790718F4229880E055
:100AE0000895229A81E0089590915802981749F04C
:100AF000981710F091E001C09FEF80935802892F62
:100B0000089580E008954F925F926F927F928F9246
:100B10009F92AF92BF92CF92DF92EF92FF920F938C
:100B20001F93CF93DF93CDB7DEB768970FB6F894D6
:100B3000DEBF0FBECDBF082F8CE0E3E1F1E0DE01A8
:100B4000119601900D928A95E1F78CE0EFE1F1E0CA
:100B5000DE011D9601900D928A95E1F78091600269
:100B600085FFACC00E945C0360E080E00E94490306
:100B7000E02FF0E0EE0FFF1F21E030E02C0F3D1FD3
:100B8000E20FF31F81818F9380818F930E94C00FAA
:100B90000F900F9080915F0281117DC081E0800FE6
:100BA00080935F02023039F128F4002351F00130C4
:100BB000A9F07FC00430C9F158F1053009F442C0F2
:100BC00078C086EF94E090935C0280935B0283E6AA
:100BD00092E090936602809365026BC08EEF93E083
:100BE00090935C0280935B028AE890E090936602A7
:100BF000809365025EC084E690E090935C028093EF
:100C00005B0281E692E0909366028093650251C098
:100C100081E090E090935C0280935B0289E592E032
:100C2000909366028093650244C080E890E09093C0
:100C30005C0280935B028EE091E090936602809369
:100C4000650237C0F89480916002877F80936002CC
:100C5000609163027091640284E090E00E948712C8
:100C600060918A0070918B0082E090E00E94871270
:100C70006091610281E090E00E94751260915902DA
:100C800080E090E00E94751260910E0182E191E097
:100C90000E9475120EC085E090E090935C028093F4
:100CA0005B0280E191E0909366028093650210926E
:100CB0005F02809160028F7D8093600210915F02DD
:100CC000123009F418C130F4112369F0113009F41D
:100CD00008C15BC1143009F431C108F425C11530D5
:100CE00009F446C152C10E945C0355245394442424
:100CF00043940F2EF1E4CF2EF2E0DF2EF02D0F2ED5
:100D0000F7ED6F2EF1E07F2EF02D0F2EF5EA8F2EEE
:100D1000F1E09F2EF02D0F2EFAE4EF2EF2E0FF2EE1
:100D2000F02D0F2EFAE8AF2EB12CF02D02C01F5F70
:100D30005394612F80E00E944903642D011360E009
:100D4000E12FF0E0EE0FFF1F81E090E08C0F9D1F80
:100D5000E80FF91F848595850E94E504123009F497
:100D600064C028F4112351F01130F1F1B5C01330F3
:100D700009F491C0143009F4A0C0AEC040916302E0
:100D8000509164029A01ADECBCEC0E94270F96953D
:100D9000879596958795969587959C01220F331F89
:100DA000880F991F880F991F880F991F820F931F13
:100DB000FA01E81BF90BCF019F93EF939A010E9470
:100DC000270F9695879596958795969587959F93E6
:100DD0008F93DF92CF920E94C00F0F900F900F90D1
:100DE0000F900F900F90A3CFF50120813181A4E6E1
:100DF000B0E00E94270FDC01CB01072E7AE0B69508
:100E0000A795979587957A95D1F7702DBF93AF9356
:100E10009F938F93FF92EF920E94C00F0F900F90BD
:100E20000F900F900F900F9082CF409161025091E0
:100E300062029A01ADECBCEC0E94270F9695879553
:100E400096958795969587959C01220F331F880F5D
:100E5000991F880F991F880F991F820F931F9A015E
:100E6000281B390BC9019F932F939A010E94270FCA
:100E70009695879596958795969587959F938F9349
:100E8000DF92CF920E94C00F0F900F900F900F90A3
:100E90000F900F904CCF8091590280FD07C09F9218
:100EA0008F920E94C00F0F900F9041CF7F926F9250
:100EB0000E94C00F0F900F903ACF80910F018F9337
:100EC00080910E018F93FF92EF920E94C00F0F90BE
:100ED0000F900F900F902BCF35E0351508F455C0CB
:100EE00026CF409163025091640221E062E08EE1DE
:100EF0000E94E1034AC020918A0030918B00A4E651
:100F0000B0E00E94270FAB01BC01032E3AE07695BA
:100F10006795579547953A95D1F7302D20E062E0D7
:100F20008EE10E94E10331C0409161025091620262
:100F300021E062E08EE10E94E10327C062E080E0F0
:100F40000E9449038091590280FD09C08AEA91E01C
:100F50009F938F930E94C00F0F900F9016C082EB4B
:100F600091E09F938F930E94C00F0F900F900DC040
:100F700040910E0150910F0120E062E08EE10E944D
:100F8000E10380910E010E94990368960FB6F894D0
:100F9000DEBF0FBECDBFDF91CF911F910F91FF90AC
:100FA000EF90DF90CF90BF90AF909F908F907F9009
:100FB0006F905F904F90089585E085BD16BC80E1ED
:100FC00087BD82E080936E0083E2809380008DE095
:100FD0008093810010928500E4E8F0E01082109286
:100FE000870010928600109289001092880010925B
:100FF0008B0010928A00118210820E94700384E09C
:101000000E94A20E0895CF93DF93CDB7DEB7689705
:101010000FB6F894DEBF0FBECDBF80E091E0909395
:101020006A02809369021A8A198A1C8A1B8A1D8A9D
:10103000109260020E94DC0784E090E00E946F1230
:1010400090936402809363020196D9F460E871E0A2
:1010500084E090E00E949B1264E872E082E090E0FD
:101060000E949B1268E081E090E00E948D1260E097
:1010700080E090E00E948D1260E482E191E00E94A5
:101080008D1284E090E00E946F129093640280932E
:10109000630281E090E00E94671290E09093620208
:1010A0008093610282E090E00E946F1290938B0027
:1010B00080938A0080E090E00E94671290E0909315
:1010C0005A028093590282E191E00E946712282F10
:1010D00030E030930F0120930E010E9499039E018E
:1010E0002B5E3F4F44E062E0CE0101960E94E20C8D
:1010F0009D89923009F088E00E94070561E080E058
:101100000E9449038D891F928F938DEF91E09F93E9
:101110008F930E94C00F0F900F900F900F9000E6DA
:1011200020E040E0BE016F5F7F4F84E00E94520DDF
:101130008430A9F700E620E040E0BE01675F7F4F02
:1011400084E00E94520D8430A9F700E01E8AA12C91
:10115000B12C812C912C0F2EF7E16F2EF2E07F2E17
:10116000F02D0F2EF0E22F2EF2E03F2EF02D0F2E5D
:10117000FBE34F2EF2E05F2EF02D8091600283FDA5
:101180007FC210E0E12EF12CA701440F551F81E131
:1011900090E08C0F9D1F480F591FB701660F771FF6
:1011A000660F771F660F771FE1E0F0E0EC0FFD1F81
:1011B0006E0F7F1F84E00E94C70D8823B9F00E9444
:1011C000070561E080E00E944903FFEFEF1AFF0A84
:1011D000FF92EF922DE032E03F932F930E94C00FD9
:1011E00022980F900F900F900F9001C01F5F123048
:1011F00048F2C988DA888B899C89C80ED91E760185
:10120000F694E794B501C7010E946B0590916002C6
:1012100080FB92F99093600290FD15C0A09063024C
:10122000B0906402C5010A978E159F0530F05701F2
:101230009AE0A90EB11C0AE001C001E080916002B1
:101240008160809360028091600282FF63C08D7F25
:1012500080936002EE89EE2351F1EF5FEE8BEA306E
:1012600071F52F89388D2E153F0531F58091630278
:1012700090916402A816B90609F1EAE8F0E08081CD
:1012800091818F3F934038F48091590290915A0296
:101290008170992702C080E090E0EAE8F0E02081C8
:1012A0003181820F931F918380831E8A08C0F88E3C
:1012B000EF8AF1E0FE8B03C01E8A01C01E8AC501C1
:1012C0004497E816F90608F057C0EAE8F0E0808194
:1012D0009181863F934038F48091590280FF06C087
:1012E0002AE030E005C020E030E002C020E030E03D
:1012F000EAE8F0E080819181820F931F91838083DF
:10130000809160028E7F8093600286E00E940705D4
:10131000450135C0E814F90488F581FD30C080919D
:10132000600282608E7F8093600280916102909162
:1013300062028A0D9B1D8815990508F5EAE8F0E020
:1013400020813181802F90E08217930738F48091BB
:10135000590280FF06C0202F30E005C020E030E0B9
:1013600002C020E030E0EAE8F0E080819181821B59
:10137000930B9183808303C0450101C047010E9404
:101380005C0360E080E00E94490349895A899A0120
:10139000ADECBCEC0E94270F9695879596958795A6
:1013A000969587959C01220F331F880F991F880FF0
:1013B000991F880F991F820F931F9A01281B390BC1
:1013C000C9019F932F939A010E94270F96958795A5
:1013D00096958795969587959F938F937F926F9219
:1013E0000E94C00F61E080E00E9449034B895C8944
:1013F0009A01ADECBCEC0E94270F969587959695C7
:101400008795969587959C01220F331F880F991F0A
:10141000880F991F880F991F820F931FFA01E81BED
:10142000F90BCF019F93EF939A010E94270F969596
:10143000879596958795969587959F938F933F92DD
:101440002F920E94C00F62E080E00E944903970142
:10145000ADECBCEC0E94270F9695879596958795E5
:10146000969587959C01220F331F880F991F880F2F
:10147000991F880F991F820F931FE81AF90AFF928C
:10148000EF9296010E94270F929582958F7089277F
:101490009F7089279F938F9329E232E03F932F9388
:1014A0000E94C00F63E080E00E9449034091630204
:1014B000509164029A01ADECBCEC0E94270F969506
:1014C000879596958795969587959C01220F331F52
:1014D000880F991F880F991F880F991F820F931FDC
:1014E000FA01E81BF90BCF019F93EF939A010E9439
:1014F000270F9695879596958795969587959F93AF
:101500008F9322E332E03F932F930E94C00F64E059
:1015100080E00E94490340916102509162029A0169
:10152000ADECBCEC0E94270F969587959695879514
:10153000969587959C01220F331F880F991F880F5E
:10154000991F880F991F820F931FFA01E81BF90B4F
:10155000CF019F93EF939A010E94270F969587954D
:1015600096958795969587959F938F93A4014A1991
:101570005B099A010E94270F969587959695879506
:10158000969587959C01220F331F880F991F880F0E
:10159000991F880F991F820F931F9A01281B390BDF
:1015A000C9019F932F939A010E94270F96958795C3
:1015B00096958795969587959F938F935F924F9277
:1015C0000E94C00F0FB6F894DEBF0FBECDBF65E01E
:1015D00080E00E944903EAE8F0E020813181A4E63E
:1015E000B0E00E94270FDC01CB01072E7AE0B69510
:1015F000A795979587957A95D1F7702DBF93AF935F
:101600009F938F9387E492E09F938F930E94C00FE4
:101610000F900F900F900F900F900F904D9B05C063
:10162000809160028F7E809360024D99A6CD80915B
:10163000600284FDA2CD229810925F028091600228
:1016400088608F7D80618093600285E090E0909358
:101650005C0280935B0284E090E0909311018093A0
:10166000100120E131E030936602209365020E9470
:101670005C03E0E1F1E080810E94830578947DCDF8
:10168000E0916502F091660280810E9474058111EB
:1016900004C08091600285FFF3CFE0916502F09174
:1016A000660280819181992334F480915B0290914C
:1016B0005C0291838083E0916502F0916602208153
:1016C000318180915B0290915C028217930710F444
:1016D00011821082E0E1F1E080810E9483054DCD0E
:1016E0001F920F920FB60F9211242F933F934F9397
:1016F0005F938F939F93EF93FF9316BC89B1807C88
:1017000080935D02811104C080E880935E0244C032
:1017100090915E02992309F43FC08038E1F0803C4B
:1017200019F08034C9F528C09038B1F1E091650214
:10173000F09166022081318199231CF481E090E0D0
:1017400002C08FEF9FEFA901481B590B51834083C3
:1017500010925E0221C0915090935E029530E0F4A9
:10176000E0916502F09166028081918101979183F9
:10177000808310925E0210C09F5F90935E029B3F39
:1017800058F0E0916502F0916602808191810196A6
:101790009183808310925E024D9B05C08091600210
:1017A0008F7E809360024D9908C08091600284FD15
:1017B00004C08061806280936002FF91EF919F91ED
:1017C0008F915F914F913F912F910F900FBE0F908E
:1017D0001F90189598E038E1282F262720FD02C099
:1017E000669503C063276695606886959150A1F75A
:1017F000862F0895EF92FF920F931F93CF93DF935D
:101800007C018C01095F1F4FEC0160E089910E940F
:10181000EA0B682F0C171D07C9F781E0F7019781C4
:10182000961301C080E0DF91CF911F910F91FF903F
:10183000EF900895EF92FF920F931F93CF93DF9352
:101840007C018C01085F1F4FEC0160E089910E94D0
:10185000EA0B682F0C171D07C9F781E0F701908587
:10186000961301C080E0DF91CF911F910F91FF90FF
:10187000EF9008951F93CF93DF93D82F162FC8E0D2
:10188000D0FF04C0812F0E94AF0E03C0812F0E94A1
:10189000C90ED695C150A1F7DF91CF911F91089540
:1018A0001F93CF93DF93182FD8E0C0E0C695812F08
:1018B0000E94E20E8111C068D150C1F78C2FDF91D8
:1018C000CF911F910895FF920F931F93CF93DF93B2
:1018D0008C01F62E85E50E943A0CE801085F1F4F47
:1018E0006F2D89910E943A0CC017D107C9F7DF917B
:1018F000CF911F910F91FF900895CF92DF92EF92B9
:10190000FF920F931F93CF93DF938C01D62EF42E6B
:10191000642F80EF0E943A0CC1E0C12CD1E08F2DE2
:101920000E94E20EE82E8F2D0E94E20EEE2009F4B6
:101930003DC0811139C0F80190819C2B90831DC05E
:10194000F80120819C2F90959223908316C0DD1280
:1019500005C0F80180818C2B80830FC0DD1640F418
:10196000F80190818C2F809589238083CD2E05C02E
:10197000F80190819C2349F004C0F80190819C23D8
:1019800029F08F2D0E94AF0E04C0CD2E8F2D0E9406
:10199000C90EDF5FCC0F19F40F5F1F4FC1E0D134C8
:1019A00009F0BDCF8C2D05C08FEF03C0882379F2DD
:1019B000C7CFDF91CF911F910F91FF90EF90DF90F4
:1019C000CF900895BF92CF92DF92EF92FF920F9344
:1019D0001F93CF93DF937C01B42E6901662371F0CE
:1019E000FC0120E008C011928E179F07E1F72F5FDE
:1019F000FC01621719F0CF010896F5CFDE2DCF2D2F
:101A0000EE2DFF2D10E000E002C0D82FC92F88E096
:101A1000AD2FBC2F01900D928A95E1F78B2D0E947E
:101A2000030F81110AC08DE492E09F938F930E946F
:101A3000C00F0F900F908FEF2BC04B2D602F8D2F6D
:101A40009C2F0E947D0C082F1F5FC70128E0129F6A
:101A5000800D911D1124ED2FFC2F0111D6CF1123E4
:101A6000B1F0D0E0C0E005E0C7010E94FA0B81119F
:101A700005C0F60190819F5F908301C0D02FCF5F9A
:101A8000F8E0EF0EF11C1C13EFCF8D2F01C080E0AA
:101A9000DF91CF911F910F91FF90EF90DF90CF904A
:101AA000BF900895AF92BF92CF92DF92EF92FF92D4
:101AB0000F931F93CF93DF93CDB7DEB729970FB660
:101AC000F894DEBF0FBECDBF182F7B01B42EA22E1F
:101AD0000E94030F612FC7010E94630C612F8EE4E7
:101AE0000E943A0C612F8B2D0E943A0C612F8A2D97
:101AF0000E943A0C612F802F0E943A0C812F0E9485
:101B0000030F612FC7010E94630C612F8EEB0E94AF
:101B10003A0CCE0101967C016E019AE0C90ED11CEF
:101B2000812F0E94500CF70181937F01EC15FD0578
:101B3000B9F7CE0101960E941A0C811110C08B8159
:101B4000B8120FC08C81A8120EC02D81207630E013
:101B5000802F90E02817390741F484E007C081E026
:101B600005C083E003C083E001C083E029960FB67F
:101B7000F894DEBF0FBECDBFDF91CF911F910F91C3
:101B8000FF90EF90DF90CF90BF90AF9008952F928D
:101B90003F924F925F926F927F928F929F92AF92FD
:101BA000BF92CF92DF92EF92FF920F931F93CF934A
:101BB000DF93CDB7DEB72A970FB6F894DEBF0FBE1E
:101BC000CDBFF82E8B012A010E94030F6F2DC80193
:101BD0000E94630C6F2D84E40E943A0C8F2D0E94AA
:101BE000E20E8823D9F38F2D0E94030F6F2DC801B9
:101BF0000E94630C6F2D8EEB0E943A0C8E010F5FDA
:101C00001F4F6E018AE0C80ED11C8F2D0E94500C10
:101C1000F80181938F01CE16DF06B9F7CE01019648
:101C20000E941A0C782E811171C08A80912C982CF8
:101C300088248981882AE82DEF702E2F30E040E03B
:101C400050E060E070E080E090E002E00E94950FDC
:101C5000A22EB32EC42ED52EE62EF72EF82F192F36
:101C600005E00E94950F0F2F0E94B70FAE2EB12CEA
:101C7000C12CD12CE12CF12C00E010E00E94AE0F21
:101C8000222E332E642E5A87B62FA72FF82FE92F36
:101C900002E00E94950FA22EB32EC42ED52EE62E62
:101CA000F72E082F192F222D332D462D5A856B2FF5
:101CB0007A2F8F2F9E2F0E94AE0F0F2EF8EEAF2E91
:101CC000F02D0F2EF3E0BF2EF02DC12CD12CE12CE6
:101CD000F12C00E010E00E94380F969487949694BF
:101CE00087949694879496948794C401880F991F3B
:101CF000880C991C880C991C880C991C880E991EBC
:101D0000820E911CF2019182808202C0772473942A
:101D1000872D2A960FB6F894DEBF0FBECDBFDF9198
:101D2000CF911F910F91FF90EF90DF90CF90BF90D8
:101D3000AF909F908F907F906F905F904F903F906B
:101D40002F9008959AB1809598239AB99BB18923D1
:101D50008BB980E897E00197F1F700C008952FB79D
:101D6000F8949AB1982B9AB99BB1809598239BB916
:101D70009BE19A95F1F700C09AB198239AB99BB16B
:101D800089238BB98CEF90E00197F1F700C02FBF4A
:101D900008952FB7F8949AB1982B9AB99BB1809572
:101DA00098239BB9ECEEF0E03197F1F700C09AB1BF
:101DB00098239AB99BB189238BB9F1E3FA95F1F78E
:101DC0002FBF08953FB7F8949AB1982B9AB92BB1C9
:101DD000982F909529232BB92BE12A95F1F700C074
:101DE0002AB129232AB92BB192239BB99BE29A9558
:101DF000F1F700C099B1E8EDF0E03197F1F700C0DC
:101E00003FBF892308953FB7F8949AB1982B9AB9A8
:101E10002BB1982F909529232BB9E0E8F7E0319763
:101E2000F1F700C02AB129232AB92BB192239BB91B
:101E3000E4E1F1E03197F1F700C099B1E4E6F6E0B2
:101E40003197F1F700C03FBF909589230895A29F75
:101E5000B001B39FC001A39F700D811D1124911D7E
:101E6000B29F700D811D1124911D0895689401C0C9
:101E7000E8948F929F92CF93DF930E94440FDF915B
:101E8000CF919F908F90089588249924F401E401C4
:101E9000B0E49F93AA279A158B049C04ED05FE05D8
:101EA000CF05D007A10798F4AD2FDC2FCF2FFE2F41
:101EB000E92D982C892E982F872F762F652F542F58
:101EC000432F322F2227B85031F7BF9127C01B2E46
:101ED000BF91BB27220F331F441F551F661F771F5B
:101EE000881F991F881C991CEE1FFF1FCC1FDD1F28
:101EF000AA1FBB1F8A149B04EC05FD05CE05DF0558
:101F0000A007B10748F08A189B08EC09FD09CE0923
:101F1000DF09A00BB10B21601A94E1F62EF49401B5
:101F2000AF01BE01CD01000C08950F93083090F071
:101F3000982F872F762F652F542F432F322F22274C
:101F40000850F4CF220F331F441F551F661F771F01
:101F5000881F991F0A95B2F70F9108952A0D3B1D0E
:101F60004C1D5D1D6E1D7F1D801F911F08952A1938
:101F70003B094C095D096E097F09800B910B08959F
:101F8000A0E0B0E0E6ECFFE00C94C012AE014B5FC5
:101F90005F4FFA0161917191AF0180916902909157
:101FA0006A020E94D60FE2E00C94DC12ABE0B0E0D3
:101FB000ECEDFFE00C94B0126C017B018A01FC0196
:101FC00017821682838181FFCCC1CE0101963C012C
:101FD000F6019381F70193FD859193FF81917F0134
:101FE000882309F4BAC1853239F493FD859193FFB2
:101FF00081917F01853229F4B60190E00E94CD11D4
:10200000E7CF912C212C312CFFE1F315D8F08B3246
:1020100079F038F4803279F08332A1F4232D2061F5
:102020001DC08D3261F0803369F4232D216016C00C
:10203000832D8260382EE32DE4603E2E2AC0F32DDE
:10204000F8601DC037FC2DC020ED280F2A3040F06D
:102050008E32B9F436FC81C1232D2064322E19C092
:1020600036FE06C08AE0989E200D1124922E11C0E3
:10207000EAE02E9E200D1124222EF32DF0623F2E39
:1020800008C08C3621F4832D8068382E02C0883633
:1020900041F4F70193FD859193FF81917F018111B7
:1020A000B3CF982F9F7D9554933028F40C5F1F4F2A
:1020B0009FE399830DC0833631F0833771F0833508
:1020C00009F059C021C0F801808189830E5F1F4F3C
:1020D00088248394912C530113C02801F2E04F0E01
:1020E000511CF801A080B18036FE03C0692D70E05C
:1020F00002C06FEF7FEFC5010E94C2114C01820147
:10210000F32DFF773F2E16C0280122E0420E511C0E
:10211000F801A080B18036FE03C0692D70E002C0D6
:102120006FEF7FEFC5010E94B7114C01F32DF068EE
:102130003F2E820133FC1BC0822D90E08816990649
:10214000B0F4B60180E290E00E94CD112A94F4CF61
:10215000F50137FC859137FE81915F01B60190E072
:102160000E94CD1121102A9421E0821A9108811435
:10217000910471F7E8C0843611F0893641F5F80111
:1021800037FE07C060817181828193810C5F1F4F90
:1021900008C060817181072E000C880B990B0E5FBF
:1021A0001F4FF32DFF763F2E97FF09C09095809526
:1021B000709561957F4F8F4F9F4FF0683F2E2AE0BB
:1021C00030E0A3010E940912882E861845C0853789
:1021D00031F4232D2F7EB22E2AE030E025C0932D3E
:1021E000997FB92E8F36C1F018F4883579F0B5C0D3
:1021F000803719F0883721F0B0C0E92FE061BE2E9A
:10220000B4FE0DC0FB2DF460BF2E09C034FE0AC021
:10221000292F2660B22E06C028E030E005C020E15C
:1022200030E002C020E132E0F801B7FE07C0608173
:102230007181828193810C5F1F4F06C06081718123
:1022400080E090E00E5F1F4FA3010E940912882ECC
:102250008618FB2DFF773F2E36FE0DC0232D2E7FD7
:10226000A22E891458F434FE0BC032FC09C0832D11
:102270008E7EA82E05C0B82CA32C03C0B82C01C09C
:10228000B92CA4FE0FC0FE01E80DF11D8081803342
:1022900021F49A2D997EA92E09C0A2FE06C0B394FE
:1022A000B39404C08A2D867809F0B394A3FC11C0BE
:1022B000A0FE06C0B21488F4280C922C9B180EC005
:1022C000B21460F4B60180E290E00E94CD11B394A4
:1022D000F7CFB21418F42B1802C0982C212CA4FEAE
:1022E00010C0B60180E390E00E94CD11A2FE17C09D
:1022F000A1FC03C088E790E002C088E590E0B60149
:102300000CC08A2D867859F0A1FE02C08BE201C074
:1023100080E2A7FC8DE2B60190E00E94CD11891405
:1023200038F4B60180E390E00E94CD119A94F7CF83
:102330008A94F301E80DF11D8081B60190E00E94BE
:10234000CD118110F5CF222009F442CEB60180E2F2
:1023500090E00E94CD112A94F6CFF60186819781F4
:1023600002C08FEF9FEF2B96E2E10C94CC12FC01A0
:102370000590615070400110D8F7809590958E0FB0
:102380009F1F0895FC016150704001900110D8F723
:10239000809590958E0F9F1F08950F931F93CF9355
:1023A000DF93FB01238121FD03C08FEF9FEF2CC042
:1023B00022FF16C046815781248135814217530779
:1023C00044F4A081B1819D012F5F3F4F3183208371
:1023D0008C93268137812F5F3F4F3783268314C02C
:1023E0008B01EC01FB010084F185E02D0995892B1F
:1023F000E1F6D80116968D919C9117970196179644
:102400009C938E931697CE01DF91CF911F910F91E0
:102410000895FA01AA27283051F1203181F1E8947A
:102420006F936E7F6E5F7F4F8F4F9F4FAF4FB1E0C7
:102430003ED0B4E03CD0670F781F891F9A1FA11DC2
:10244000680F791F8A1F911DA11D6A0F711D811DC3
:10245000911DA11D20D009F468943F912AE0269F88
:1024600011243019305D3193DEF6CF010895462FE7
:102470004770405D4193B3E00FD0C9F7F6CF462FC8
:102480004F70405D4A3318F0495D31FD4052419331
:1024900002D0A9F7EACFB4E0A695979587957795EE
:1024A0006795BA95C9F700976105710508959B0175
:1024B000AC010A2E06945795479537952795BA95FE
:1024C000C9F7620F731F841F951FA01D0895F99906
:1024D000FECF92BD81BDF89A992780B50895A8E1F5
:1024E000B0E042E050E00C94A212262FF999FECF02
:1024F00092BD81BDF89A019700B4021639F01FBA57
:1025000020BD0FB6F894FA9AF99A0FBE0895019675
:10251000272F0E9476120C947512262FF999FECF60
:102520001FBA92BD81BD20BD0FB6F894FA9AF99AF0
:102530000FBE019608950E948D12272F0C948E12C3
:10254000DC01CB01FC01F999FECF06C0F2BDE1BD73
:10255000F89A319600B40D9241505040B8F7089562
:102560002F923F924F925F926F927F928F929F92A3
:10257000AF92BF92CF92DF92EF92FF920F931F9391
:10258000CF93DF93CDB7DEB7CA1BDB0B0FB6F89442
:10259000DEBF0FBECDBF09942A88398848885F8482
:1025A0006E847D848C849B84AA84B984C884DF80F3
:1025B000EE80FD800C811B81AA81B981CE0FD11DD7
:1025C0000FB6F894DEBF0FBECDBFED010895F894AD
:0225D000FFCF3B
:1025D2000000000200000000F804000000003C00BF
:1025E200010040BA01C301CB01D301DB01E301E9E0
:1025F20001EC01F101F501F901E301C2D1C520CEDF
:10260200CA00CED8C8C1CAC020D7D2C5CDC8DF2023
:1026120000C4E0F2F7E8EAEEE220ECE0EBEE00CEF6
:10262200F2F0E8F620F2E5ECEF2DF0E000CED82053
:10263200CFCEC8D1CAC02043524300CDC5D220C498
:10264200C0D2D7C8CAC000D2E5ECEFE5F0E0F2F3A1
:10265200F0E0202020EFE0E4E0E5F200D2E5ECEF4C
:10266200E5F0E0F2F3F0E0202020F1F2E0E1E8EB27
:10267200FCEDE0FF00D0F3F7ED00D0F3F7EDEEE96B
:102682002000C0E2F2EEECE0F200CFF0E5E4E5EB90
:10269200207400CCEEF92DF1F2FC00C2FBE1E5E37F
:1026A200207400D0F3F72FC0E2F200CAEEEDF2F090
:1026B200E0F100C2FBF5EEE400CF7400CCEEF9FCD1
:1026C20000C2207400D02FC000CAF1F200CA2DE26D
:1026D200EE20E4E0F22DEAEEE220256400C4E0F20E
:1026E200F7E8EA2025640025642E25642031E40001
:1026F20025642E25642032E40025642E256420D131
:10270200F00025642E256420CFF00025642E256478
:102712002025642E256400CC3A202564006E6F20AB
:082722006461746368696B00D7
:00000001FF
